{
  "contractName": "Migrations",
  "abi": [
    {
      "constant": true,
      "inputs": [],
      "name": "last_completed_migration",
      "outputs": [
        {
          "name": "",
          "type": "uint256"
        }
      ],
      "payable": false,
      "stateMutability": "view",
      "type": "function"
    },
    {
      "constant": true,
      "inputs": [],
      "name": "owner",
      "outputs": [
        {
          "name": "",
          "type": "address"
        }
      ],
      "payable": false,
      "stateMutability": "view",
      "type": "function"
    },
    {
      "inputs": [],
      "payable": false,
      "stateMutability": "nonpayable",
      "type": "constructor"
    },
    {
      "constant": false,
      "inputs": [
        {
          "name": "completed",
          "type": "uint256"
        }
      ],
      "name": "setCompleted",
      "outputs": [],
      "payable": false,
      "stateMutability": "nonpayable",
      "type": "function"
    },
    {
      "constant": false,
      "inputs": [
        {
          "name": "new_address",
          "type": "address"
        }
      ],
      "name": "upgrade",
      "outputs": [],
      "payable": false,
      "stateMutability": "nonpayable",
      "type": "function"
    }
  ],
  "bytecode": "0x608060405234801561001057600080fd5b5060008054600160a060020a033316600160a060020a03199091161790556102448061003d6000396000f3006080604052600436106100615763ffffffff7c01000000000000000000000000000000000000000000000000000000006000350416630900f0108114610066578063445df0ac146100965780638da5cb5b146100bd578063fdacd576146100fb575b600080fd5b34801561007257600080fd5b5061009473ffffffffffffffffffffffffffffffffffffffff60043516610113565b005b3480156100a257600080fd5b506100ab6101c9565b60408051918252519081900360200190f35b3480156100c957600080fd5b506100d26101cf565b6040805173ffffffffffffffffffffffffffffffffffffffff9092168252519081900360200190f35b34801561010757600080fd5b506100946004356101eb565b600080543373ffffffffffffffffffffffffffffffffffffffff908116911614156101c5578190508073ffffffffffffffffffffffffffffffffffffffff1663fdacd5766001546040518263ffffffff167c010000000000000000000000000000000000000000000000000000000002815260040180828152602001915050600060405180830381600087803b1580156101ac57600080fd5b505af11580156101c0573d6000803e3d6000fd5b505050505b5050565b60015481565b60005473ffffffffffffffffffffffffffffffffffffffff1681565b6000543373ffffffffffffffffffffffffffffffffffffffff908116911614156102155760018190555b505600a165627a7a7230582077ad5104cc224e85caa42f3e102e492dfda9bfdf5342e97d63e2c127d72653330029",
  "source": "pragma solidity ^0.4.2;\r\n\r\ncontract Migrations {\r\n    address public owner;\r\n    uint public last_completed_migration;\r\n\r\n    modifier restricted() {\r\n        if (msg.sender == owner) _;\r\n    }\r\n\r\n    function Migrations() public {\r\n        owner = msg.sender;\r\n    }\r\n\r\n    function setCompleted(uint completed) public restricted {\r\n        last_completed_migration = completed;\r\n    }\r\n\r\n    function upgrade(address new_address) public restricted {\r\n        Migrations upgraded = Migrations(new_address);\r\n        upgraded.setCompleted(last_completed_migration);\r\n    }\r\n}\r\n",
  "sourcePath": "C:\\workspace\\truffleProjects\\Peony_Assignment\\contracts\\Migrations.sol",
  "compiler": {
    "name": "solc",
    "version": "0.4.23+commit.124ca40d.Emscripten.clang"
  },
  "schemaVersion": "2.0.0",
  "updatedAt": "2018-06-06T09:17:40.217Z"
}