{
  "contractName": "PeonyCertificate",
  "abi": [
    {
      "constant": true,
      "inputs": [],
      "name": "name",
      "outputs": [
        {
          "name": "",
          "type": "string"
        }
      ],
      "payable": false,
      "stateMutability": "view",
      "type": "function"
    },
    {
      "constant": true,
      "inputs": [
        {
          "name": "_tokenId",
          "type": "uint256"
        }
      ],
      "name": "getApproved",
      "outputs": [
        {
          "name": "",
          "type": "address"
        }
      ],
      "payable": false,
      "stateMutability": "view",
      "type": "function"
    },
    {
      "constant": false,
      "inputs": [
        {
          "name": "_to",
          "type": "address"
        },
        {
          "name": "_tokenId",
          "type": "uint256"
        }
      ],
      "name": "approve",
      "outputs": [],
      "payable": false,
      "stateMutability": "nonpayable",
      "type": "function"
    },
    {
      "constant": true,
      "inputs": [],
      "name": "totalSupply",
      "outputs": [
        {
          "name": "",
          "type": "uint256"
        }
      ],
      "payable": false,
      "stateMutability": "view",
      "type": "function"
    },
    {
      "constant": false,
      "inputs": [
        {
          "name": "_from",
          "type": "address"
        },
        {
          "name": "_to",
          "type": "address"
        },
        {
          "name": "_tokenId",
          "type": "uint256"
        }
      ],
      "name": "transferFrom",
      "outputs": [],
      "payable": false,
      "stateMutability": "nonpayable",
      "type": "function"
    },
    {
      "constant": true,
      "inputs": [
        {
          "name": "_owner",
          "type": "address"
        },
        {
          "name": "_index",
          "type": "uint256"
        }
      ],
      "name": "tokenOfOwnerByIndex",
      "outputs": [
        {
          "name": "",
          "type": "uint256"
        }
      ],
      "payable": false,
      "stateMutability": "view",
      "type": "function"
    },
    {
      "constant": false,
      "inputs": [
        {
          "name": "_from",
          "type": "address"
        },
        {
          "name": "_to",
          "type": "address"
        },
        {
          "name": "_tokenId",
          "type": "uint256"
        }
      ],
      "name": "safeTransferFrom",
      "outputs": [],
      "payable": false,
      "stateMutability": "nonpayable",
      "type": "function"
    },
    {
      "constant": true,
      "inputs": [
        {
          "name": "_tokenId",
          "type": "uint256"
        }
      ],
      "name": "exists",
      "outputs": [
        {
          "name": "",
          "type": "bool"
        }
      ],
      "payable": false,
      "stateMutability": "view",
      "type": "function"
    },
    {
      "constant": true,
      "inputs": [
        {
          "name": "_index",
          "type": "uint256"
        }
      ],
      "name": "tokenByIndex",
      "outputs": [
        {
          "name": "",
          "type": "uint256"
        }
      ],
      "payable": false,
      "stateMutability": "view",
      "type": "function"
    },
    {
      "constant": true,
      "inputs": [],
      "name": "VV",
      "outputs": [
        {
          "name": "",
          "type": "bytes32"
        }
      ],
      "payable": false,
      "stateMutability": "view",
      "type": "function"
    },
    {
      "constant": true,
      "inputs": [
        {
          "name": "_tokenId",
          "type": "uint256"
        }
      ],
      "name": "ownerOf",
      "outputs": [
        {
          "name": "",
          "type": "address"
        }
      ],
      "payable": false,
      "stateMutability": "view",
      "type": "function"
    },
    {
      "constant": true,
      "inputs": [
        {
          "name": "_owner",
          "type": "address"
        }
      ],
      "name": "balanceOf",
      "outputs": [
        {
          "name": "",
          "type": "uint256"
        }
      ],
      "payable": false,
      "stateMutability": "view",
      "type": "function"
    },
    {
      "constant": true,
      "inputs": [],
      "name": "symbol",
      "outputs": [
        {
          "name": "",
          "type": "string"
        }
      ],
      "payable": false,
      "stateMutability": "view",
      "type": "function"
    },
    {
      "constant": false,
      "inputs": [
        {
          "name": "_to",
          "type": "address"
        },
        {
          "name": "_approved",
          "type": "bool"
        }
      ],
      "name": "setApprovalForAll",
      "outputs": [],
      "payable": false,
      "stateMutability": "nonpayable",
      "type": "function"
    },
    {
      "constant": true,
      "inputs": [],
      "name": "II",
      "outputs": [
        {
          "name": "",
          "type": "bytes32"
        }
      ],
      "payable": false,
      "stateMutability": "view",
      "type": "function"
    },
    {
      "constant": false,
      "inputs": [
        {
          "name": "_from",
          "type": "address"
        },
        {
          "name": "_to",
          "type": "address"
        },
        {
          "name": "_tokenId",
          "type": "uint256"
        },
        {
          "name": "_data",
          "type": "bytes"
        }
      ],
      "name": "safeTransferFrom",
      "outputs": [],
      "payable": false,
      "stateMutability": "nonpayable",
      "type": "function"
    },
    {
      "constant": true,
      "inputs": [
        {
          "name": "_tokenId",
          "type": "uint256"
        }
      ],
      "name": "tokenURI",
      "outputs": [
        {
          "name": "",
          "type": "string"
        }
      ],
      "payable": false,
      "stateMutability": "view",
      "type": "function"
    },
    {
      "constant": true,
      "inputs": [
        {
          "name": "_owner",
          "type": "address"
        },
        {
          "name": "_operator",
          "type": "address"
        }
      ],
      "name": "isApprovedForAll",
      "outputs": [
        {
          "name": "",
          "type": "bool"
        }
      ],
      "payable": false,
      "stateMutability": "view",
      "type": "function"
    },
    {
      "inputs": [],
      "payable": false,
      "stateMutability": "nonpayable",
      "type": "constructor"
    },
    {
      "anonymous": false,
      "inputs": [
        {
          "indexed": true,
          "name": "_from",
          "type": "address"
        },
        {
          "indexed": true,
          "name": "_to",
          "type": "address"
        },
        {
          "indexed": false,
          "name": "_tokenId",
          "type": "uint256"
        }
      ],
      "name": "Transfer",
      "type": "event"
    },
    {
      "anonymous": false,
      "inputs": [
        {
          "indexed": true,
          "name": "_owner",
          "type": "address"
        },
        {
          "indexed": true,
          "name": "_approved",
          "type": "address"
        },
        {
          "indexed": false,
          "name": "_tokenId",
          "type": "uint256"
        }
      ],
      "name": "Approval",
      "type": "event"
    },
    {
      "anonymous": false,
      "inputs": [
        {
          "indexed": true,
          "name": "_owner",
          "type": "address"
        },
        {
          "indexed": true,
          "name": "_operator",
          "type": "address"
        },
        {
          "indexed": false,
          "name": "_approved",
          "type": "bool"
        }
      ],
      "name": "ApprovalForAll",
      "type": "event"
    },
    {
      "constant": false,
      "inputs": [
        {
          "name": "_to",
          "type": "address"
        },
        {
          "name": "_uri",
          "type": "string"
        },
        {
          "name": "expirationTime",
          "type": "uint256"
        }
      ],
      "name": "IssueCertificate",
      "outputs": [],
      "payable": false,
      "stateMutability": "nonpayable",
      "type": "function"
    },
    {
      "constant": false,
      "inputs": [
        {
          "name": "_to",
          "type": "address"
        },
        {
          "name": "_uri",
          "type": "string"
        }
      ],
      "name": "IssueCertificate",
      "outputs": [],
      "payable": false,
      "stateMutability": "nonpayable",
      "type": "function"
    },
    {
      "constant": true,
      "inputs": [
        {
          "name": "tokenId",
          "type": "uint256"
        }
      ],
      "name": "GetIssuerAddressByTokenId",
      "outputs": [
        {
          "name": "Issuer",
          "type": "address"
        }
      ],
      "payable": false,
      "stateMutability": "view",
      "type": "function"
    },
    {
      "constant": true,
      "inputs": [
        {
          "name": "tokenId",
          "type": "uint256"
        }
      ],
      "name": "GetExpirationTimeByTokenId",
      "outputs": [
        {
          "name": "expirationTime",
          "type": "uint256"
        }
      ],
      "payable": false,
      "stateMutability": "view",
      "type": "function"
    },
    {
      "constant": true,
      "inputs": [
        {
          "name": "tokenId",
          "type": "uint256"
        }
      ],
      "name": "isCertificateValid",
      "outputs": [
        {
          "name": "valid",
          "type": "uint256"
        }
      ],
      "payable": false,
      "stateMutability": "view",
      "type": "function"
    }
  ],
  "bytecode": "0x60c0604052600560808190527f50656f6e7900000000000000000000000000000000000000000000000000000060a09081526200004091600b919062000186565b506040805180820190915260038082527f504e59000000000000000000000000000000000000000000000000000000000060209092019182526200008791600c9162000186565b507f5656000000000000000000000000000000000000000000000000000000000000600d557f4949000000000000000000000000000000000000000000000000000000000000600e556001600f8190556000601055601155348015620000ec57600080fd5b50604080518082018252600581527f50656f6e7900000000000000000000000000000000000000000000000000000060208083019182528351808501909452600384527f504e590000000000000000000000000000000000000000000000000000000000908401528151919291620001679160049162000186565b5080516200017d90600590602084019062000186565b5050506200022b565b828054600181600116156101000203166002900490600052602060002090601f016020900481019282601f10620001c957805160ff1916838001178555620001f9565b82800160010185558215620001f9579182015b82811115620001f9578251825591602001919060010190620001dc565b50620002079291506200020b565b5090565b6200022891905b8082111562000207576000815560010162000212565b90565b611442806200023b6000396000f3006080604052600436106101325763ffffffff7c010000000000000000000000000000000000000000000000000000000060003504166306fdde038114610137578063081812fc146101c1578063095ea7b3146101f557806318160ddd1461021b57806323b872dd146102425780632b1f80ed1461026c5780632f745c59146102845780633f02186e146102a857806342842e0e146102c05780634f558e79146102ea5780634f6ccce7146103165780636235bce91461032e5780636352211e1461034357806364113c4d1461035b57806370a08231146103c457806395d89b41146103e5578063a22cb465146103fa578063a5ce413a14610420578063a8d65f2214610438578063aa1ebbad1461049f578063b88d4fde146104b4578063c87b56dd14610523578063e985e9c51461053b575b600080fd5b34801561014357600080fd5b5061014c610562565b6040805160208082528351818301528351919283929083019185019080838360005b8381101561018657818101518382015260200161016e565b50505050905090810190601f1680156101b35780820380516001836020036101000a031916815260200191505b509250505060405180910390f35b3480156101cd57600080fd5b506101d96004356105f9565b60408051600160a060020a039092168252519081900360200190f35b34801561020157600080fd5b50610219600160a060020a0360043516602435610614565b005b34801561022757600080fd5b5061023061070f565b60408051918252519081900360200190f35b34801561024e57600080fd5b50610219600160a060020a0360043581169060243516604435610715565b34801561027857600080fd5b506101d96004356107c4565b34801561029057600080fd5b50610230600160a060020a03600435166024356107df565b3480156102b457600080fd5b5061023060043561082c565b3480156102cc57600080fd5b50610219600160a060020a036004358116906024351660443561083e565b3480156102f657600080fd5b50610302600435610876565b604080519115158252519081900360200190f35b34801561032257600080fd5b50610230600435610899565b34801561033a57600080fd5b506102306108ce565b34801561034f57600080fd5b506101d96004356108d4565b34801561036757600080fd5b5060408051602060046024803582810135601f8101859004850286018501909652858552610219958335600160a060020a031695369560449491939091019190819084018382808284375094975050933594506108fe9350505050565b3480156103d057600080fd5b50610230600160a060020a036004351661098d565b3480156103f157600080fd5b5061014c6109c0565b34801561040657600080fd5b50610219600160a060020a03600435166024351515610a21565b34801561042c57600080fd5b50610230600435610ab0565b34801561044457600080fd5b5060408051602060046024803582810135601f8101859004850286018501909652858552610219958335600160a060020a0316953695604494919390910191908190840183828082843750949750610ae69650505050505050565b3480156104ab57600080fd5b50610230610be9565b3480156104c057600080fd5b50604080516020601f60643560048181013592830184900484028501840190955281845261021994600160a060020a038135811695602480359092169560443595369560849401918190840183828082843750949750610bef9650505050505050565b34801561052f57600080fd5b5061014c600435610c2e565b34801561054757600080fd5b50610302600160a060020a0360043581169060243516610ce3565b60048054604080516020601f60026000196101006001881615020190951694909404938401819004810282018101909252828152606093909290918301828280156105ee5780601f106105c3576101008083540402835291602001916105ee565b820191906000526020600020905b8154815290600101906020018083116105d157829003601f168201915b505050505090505b90565b600090815260016020526040902054600160a060020a031690565b600061061f826108d4565b9050600160a060020a03838116908216141561063a57600080fd5b80600160a060020a031633600160a060020a0316148061065f575061065f8133610ce3565b151561066a57600080fd5b6000610675836105f9565b600160a060020a03161415806106935750600160a060020a03831615155b1561070a57600082815260016020908152604091829020805473ffffffffffffffffffffffffffffffffffffffff1916600160a060020a03878116918217909255835186815293519093918516927f8c5be1e5ebec7d5bd14f71427d1e84f3dd0314c0f7b2291e5b200ac8c7c3b925928290030190a35b505050565b60085490565b806107203382610d11565b151561072b57600080fd5b600160a060020a038416151561074057600080fd5b600160a060020a038316151561075557600080fd5b61075f8483610d70565b6107698483610e1e565b6107738383610f57565b82600160a060020a031684600160a060020a03167fddf252ad1be2c89b69c2b068fc378daa952ba7f163c4a11628f55a4df523b3ef846040518082815260200191505060405180910390a350505050565b600090815260146020526040902054600160a060020a031690565b60006107ea8361098d565b82106107f557600080fd5b600160a060020a038316600090815260066020526040902080548390811061081957fe5b9060005260206000200154905092915050565b60009081526015602052604090205490565b806108493382610d11565b151561085457600080fd5b6108708484846020604051908101604052806000815250610bef565b50505050565b600081815260208190526040902054600160a060020a0316801515905b50919050565b60006108a361070f565b82106108ae57600080fd5b60088054839081106108bc57fe5b90600052602060002001549050919050565b600d5481565b600081815260208190526040812054600160a060020a03168015156108f857600080fd5b92915050565b601180546001810190915560006109158583610fa0565b61091f8285610fef565b50600160a060020a033316600081815260136020908152604080832080546001810182559084528284208101869055948352601282528083209490945560148152838220805473ffffffffffffffffffffffffffffffffffffffff1916909317909255601590915220555050565b6000600160a060020a03821615156109a457600080fd5b50600160a060020a031660009081526002602052604090205490565b60058054604080516020601f60026000196101006001881615020190951694909404938401819004810282018101909252828152606093909290918301828280156105ee5780601f106105c3576101008083540402835291602001916105ee565b33600160a060020a031682600160a060020a031614151515610a4257600080fd5b600160a060020a03338116600081815260036020908152604080832094871680845294825291829020805486151560ff199091168117909155825190815291517f17307eab39ab6107e8899845ad3d59bd9653f200f220920489ca2b5937696c319281900390910190a35050565b6000818152601560205260408120544281108015610acd57508015155b15610adc57600f549150610893565b6010549150610893565b30600160a060020a03166364113c4d838360006040518463ffffffff167c01000000000000000000000000000000000000000000000000000000000281526004018084600160a060020a0316600160a060020a0316815260200180602001838152602001828103825284818151815260200191508051906020019080838360005b83811015610b7f578181015183820152602001610b67565b50505050905090810190601f168015610bac5780820380516001836020036101000a031916815260200191505b50945050505050600060405180830381600087803b158015610bcd57600080fd5b505af1158015610be1573d6000803e3d6000fd5b505050505050565b600e5481565b81610bfa3382610d11565b1515610c0557600080fd5b610c10858585610715565b610c1c85858585611022565b1515610c2757600080fd5b5050505050565b6060610c3982610876565b1515610c4457600080fd5b6000828152600a602090815260409182902080548351601f600260001961010060018616150201909316929092049182018490048402810184019094528084529091830182828015610cd75780601f10610cac57610100808354040283529160200191610cd7565b820191906000526020600020905b815481529060010190602001808311610cba57829003601f168201915b50505050509050919050565b600160a060020a03918216600090815260036020908152604080832093909416825291909152205460ff1690565b600080610d1d836108d4565b905080600160a060020a031684600160a060020a03161480610d58575083600160a060020a0316610d4d846105f9565b600160a060020a0316145b80610d685750610d688185610ce3565b949350505050565b81600160a060020a0316610d83826108d4565b600160a060020a031614610d9657600080fd5b600081815260016020526040902054600160a060020a031615610e1a576000818152600160209081526040808320805473ffffffffffffffffffffffffffffffffffffffff1916905580518481529051600160a060020a038616927f8c5be1e5ebec7d5bd14f71427d1e84f3dd0314c0f7b2291e5b200ac8c7c3b925928290030190a35b5050565b6000806000610e2d85856111ab565b600084815260076020908152604080832054600160a060020a0389168452600690925290912054909350610e6890600163ffffffff61124016565b600160a060020a038616600090815260066020526040902080549193509083908110610e9057fe5b90600052602060002001549050806006600087600160a060020a0316600160a060020a0316815260200190815260200160002084815481101515610ed057fe5b6000918252602080832090910192909255600160a060020a0387168152600690915260408120805484908110610f0257fe5b6000918252602080832090910192909255600160a060020a0387168152600690915260409020805490610f3990600019830161135a565b50600093845260076020526040808520859055908452909220555050565b6000610f638383611252565b50600160a060020a039091166000908152600660209081526040808320805460018101825590845282842081018590559383526007909152902055565b610faa82826112e1565b600880546000838152600960205260408120829055600182018355919091527ff3f7a9fe364faab93b216da50a3214154f22a0a2b415b23a84c8169e8b636ee3015550565b610ff882610876565b151561100357600080fd5b6000828152600a60209081526040909120825161070a9284019061137e565b60008061103785600160a060020a0316611345565b151561104657600191506111a2565b84600160a060020a031663f0b9e5ba8786866040518463ffffffff167c01000000000000000000000000000000000000000000000000000000000281526004018084600160a060020a0316600160a060020a0316815260200183815260200180602001828103825283818151815260200191508051906020019080838360005b838110156110de5781810151838201526020016110c6565b50505050905090810190601f16801561110b5780820380516001836020036101000a031916815260200191505b50945050505050602060405180830381600087803b15801561112c57600080fd5b505af1158015611140573d6000803e3d6000fd5b505050506040513d602081101561115657600080fd5b50517fffffffff0000000000000000000000000000000000000000000000000000000081167ff0b9e5ba0000000000000000000000000000000000000000000000000000000014925090505b50949350505050565b81600160a060020a03166111be826108d4565b600160a060020a0316146111d157600080fd5b600160a060020a0382166000908152600260205260409020546111fb90600163ffffffff61124016565b600160a060020a039092166000908152600260209081526040808320949094559181529081905220805473ffffffffffffffffffffffffffffffffffffffff19169055565b60008282111561124c57fe5b50900390565b600081815260208190526040902054600160a060020a03161561127457600080fd5b600081815260208181526040808320805473ffffffffffffffffffffffffffffffffffffffff1916600160a060020a038716908117909155835260029091529020546112c190600161134d565b600160a060020a0390921660009081526002602052604090209190915550565b600160a060020a03821615156112f657600080fd5b6113008282610f57565b604080518281529051600160a060020a038416916000917fddf252ad1be2c89b69c2b068fc378daa952ba7f163c4a11628f55a4df523b3ef9181900360200190a35050565b6000903b1190565b818101828110156108f857fe5b81548183558181111561070a5760008381526020902061070a9181019083016113fc565b828054600181600116156101000203166002900490600052602060002090601f016020900481019282601f106113bf57805160ff19168380011785556113ec565b828001600101855582156113ec579182015b828111156113ec5782518255916020019190600101906113d1565b506113f89291506113fc565b5090565b6105f691905b808211156113f857600081556001016114025600a165627a7a723058207358f73536455c9d670ec357e8870daaa85065fb155ed7a1c1de6e8880d4d3d50029",
  "source": "pragma solidity ^0.4.18;\nimport \"zeppelin-solidity/contracts/token/ERC721/ERC721Token.sol\";\n// References: https://github.com/OpenZeppelin/openzeppelin-solidity/blob/v1.8.0/contracts/token/ERC721/ERC721Token.sol\n\ncontract PeonyCertificate is ERC721Token (\"Peony\", \"PNY\") {\n    // These two are included in the open lib\n    string internal name_ = \"Peony\";\n    string internal symbol_ = \"PNY\";\n    // string internal VV = \"VVV\";\n    // string internal IV = \"III\";\n    bytes32 public VV = \"VV\";\n    bytes32 public II = \"II\";\n    uint256 yes = 1;\n    uint256 no = 0;\n    uint256 tokenId = 1; // default tokenId for helping people to create unique id\n\n    // our additional attirbutes for Issuer\n    // Mapping from token ID to index of the issuer's issued tokens list\n    mapping(uint256 => uint256) internal issuedTokensIndex;\n\n    // Mapping from issuer to list of issued token IDs\n    mapping (address => uint256[]) internal issuedTokens;\n\n    // Mapping from token ID to issuer\n    mapping (uint256 => address) internal tokenIssuer;\n\n    // Mapping from token ID to Expiration time\n    mapping (uint256 => uint256) internal certificateExpirationTime;\n\n    // Mapping from token ID to Valid Cert\n    // mapping (uint256 => uint256) internal certificateIsValid;\n\n    // constructor\n    function PeonyCertificate() public { \n\n    }\n\n    // Function to issue certificate to a receiver\n    // _uri  : The JSON string data that we will put in certificate\n    function IssueCertificate(address _to, string _uri) public {\n        this.IssueCertificate(_to, _uri, 0);\n    }\n\n    // OverLoaded function for regression\n    function IssueCertificate(address _to, string _uri, uint256 expirationTime) public {\n        uint256 newTokenId = tokenId++;\n        super._mint(_to, newTokenId);\n        super._setTokenURI(newTokenId, _uri);\n        // Update issuer data and Addition Peony Features\n        uint256 issuerLength = issuedTokens[msg.sender].length;\n        issuedTokens[msg.sender].push(newTokenId);\n        issuedTokensIndex[newTokenId] = issuerLength;\n        tokenIssuer[newTokenId] = msg.sender;\n        // Add expireationTime stamp\n        certificateExpirationTime[newTokenId] = expirationTime;\n    }\n\n    // Get Issuer address from provided tokentId\n    // 0: meaning the tokenId doesn't have mapped Issuer Address (more likely there is no such token)\n    function GetIssuerAddressByTokenId(uint256 tokenId) public view returns(address Issuer) {\n        return tokenIssuer[tokenId];\n    }\n\n    // Get Issuer address from provided tokentId\n    // 0: meaning the tokenId doesn't have mapped Issuer Address (more likely there is no such token)\n    function GetExpirationTimeByTokenId(uint256 tokenId) public view returns(uint256 expirationTime) {\n        return certificateExpirationTime[tokenId];\n    }\n\n    // // function isCertificateValid(uint256 tokenId) public view returns(bool valid) {\n    function isCertificateValid(uint256 tokenId) public view returns(uint256 valid) {\n        // expirationTime = GetExpirationTimeByTokenId(tokenId);\n        uint256 expirationTime = certificateExpirationTime[tokenId];        \n        if (now > expirationTime && expirationTime != 0) {\n            // return \"valid!\";\n            // return VV;\n            return yes;\n        } else {\n            // return \"invalid!\";\n            // return II;\n            return no;\n        }\n        // return (expirationTime != 0);        \n    }\n\n     \n}\n",
  "sourcePath": "/Users/Danny/Desktop/cs359b-peony-blockchain-certificate/contracts/PeonyCertificate.sol",
  "compiler": {
    "name": "solc",
    "version": "0.4.23+commit.124ca40d.Emscripten.clang"
  },
  "schemaVersion": "2.0.0",
  "updatedAt": "2018-05-21T22:54:58.571Z"
}