{
  "contractName": "PeonyCertificate",
  "abi": [
    {
      "constant": true,
      "inputs": [],
      "name": "name",
      "outputs": [
        {
          "name": "",
          "type": "string"
        }
      ],
      "payable": false,
      "stateMutability": "view",
      "type": "function"
    },
    {
      "constant": true,
      "inputs": [
        {
          "name": "_tokenId",
          "type": "uint256"
        }
      ],
      "name": "getApproved",
      "outputs": [
        {
          "name": "",
          "type": "address"
        }
      ],
      "payable": false,
      "stateMutability": "view",
      "type": "function"
    },
    {
      "constant": false,
      "inputs": [
        {
          "name": "_to",
          "type": "address"
        },
        {
          "name": "_tokenId",
          "type": "uint256"
        }
      ],
      "name": "approve",
      "outputs": [],
      "payable": false,
      "stateMutability": "nonpayable",
      "type": "function"
    },
    {
      "constant": true,
      "inputs": [],
      "name": "totalSupply",
      "outputs": [
        {
          "name": "",
          "type": "uint256"
        }
      ],
      "payable": false,
      "stateMutability": "view",
      "type": "function"
    },
    {
      "constant": false,
      "inputs": [
        {
          "name": "_from",
          "type": "address"
        },
        {
          "name": "_to",
          "type": "address"
        },
        {
          "name": "_tokenId",
          "type": "uint256"
        }
      ],
      "name": "transferFrom",
      "outputs": [],
      "payable": false,
      "stateMutability": "nonpayable",
      "type": "function"
    },
    {
      "constant": true,
      "inputs": [
        {
          "name": "_owner",
          "type": "address"
        },
        {
          "name": "_index",
          "type": "uint256"
        }
      ],
      "name": "tokenOfOwnerByIndex",
      "outputs": [
        {
          "name": "",
          "type": "uint256"
        }
      ],
      "payable": false,
      "stateMutability": "view",
      "type": "function"
    },
    {
      "constant": false,
      "inputs": [
        {
          "name": "_from",
          "type": "address"
        },
        {
          "name": "_to",
          "type": "address"
        },
        {
          "name": "_tokenId",
          "type": "uint256"
        }
      ],
      "name": "safeTransferFrom",
      "outputs": [],
      "payable": false,
      "stateMutability": "nonpayable",
      "type": "function"
    },
    {
      "constant": true,
      "inputs": [
        {
          "name": "_tokenId",
          "type": "uint256"
        }
      ],
      "name": "exists",
      "outputs": [
        {
          "name": "",
          "type": "bool"
        }
      ],
      "payable": false,
      "stateMutability": "view",
      "type": "function"
    },
    {
      "constant": true,
      "inputs": [
        {
          "name": "_index",
          "type": "uint256"
        }
      ],
      "name": "tokenByIndex",
      "outputs": [
        {
          "name": "",
          "type": "uint256"
        }
      ],
      "payable": false,
      "stateMutability": "view",
      "type": "function"
    },
    {
      "constant": true,
      "inputs": [
        {
          "name": "_tokenId",
          "type": "uint256"
        }
      ],
      "name": "ownerOf",
      "outputs": [
        {
          "name": "",
          "type": "address"
        }
      ],
      "payable": false,
      "stateMutability": "view",
      "type": "function"
    },
    {
      "constant": true,
      "inputs": [
        {
          "name": "_owner",
          "type": "address"
        }
      ],
      "name": "balanceOf",
      "outputs": [
        {
          "name": "",
          "type": "uint256"
        }
      ],
      "payable": false,
      "stateMutability": "view",
      "type": "function"
    },
    {
      "constant": true,
      "inputs": [],
      "name": "symbol",
      "outputs": [
        {
          "name": "",
          "type": "string"
        }
      ],
      "payable": false,
      "stateMutability": "view",
      "type": "function"
    },
    {
      "constant": false,
      "inputs": [
        {
          "name": "_to",
          "type": "address"
        },
        {
          "name": "_approved",
          "type": "bool"
        }
      ],
      "name": "setApprovalForAll",
      "outputs": [],
      "payable": false,
      "stateMutability": "nonpayable",
      "type": "function"
    },
    {
      "constant": false,
      "inputs": [
        {
          "name": "_from",
          "type": "address"
        },
        {
          "name": "_to",
          "type": "address"
        },
        {
          "name": "_tokenId",
          "type": "uint256"
        },
        {
          "name": "_data",
          "type": "bytes"
        }
      ],
      "name": "safeTransferFrom",
      "outputs": [],
      "payable": false,
      "stateMutability": "nonpayable",
      "type": "function"
    },
    {
      "constant": true,
      "inputs": [
        {
          "name": "_tokenId",
          "type": "uint256"
        }
      ],
      "name": "tokenURI",
      "outputs": [
        {
          "name": "",
          "type": "string"
        }
      ],
      "payable": false,
      "stateMutability": "view",
      "type": "function"
    },
    {
      "constant": true,
      "inputs": [
        {
          "name": "_owner",
          "type": "address"
        },
        {
          "name": "_operator",
          "type": "address"
        }
      ],
      "name": "isApprovedForAll",
      "outputs": [
        {
          "name": "",
          "type": "bool"
        }
      ],
      "payable": false,
      "stateMutability": "view",
      "type": "function"
    },
    {
      "inputs": [],
      "payable": false,
      "stateMutability": "nonpayable",
      "type": "constructor"
    },
    {
      "anonymous": false,
      "inputs": [
        {
          "indexed": true,
          "name": "_from",
          "type": "address"
        },
        {
          "indexed": true,
          "name": "_to",
          "type": "address"
        },
        {
          "indexed": false,
          "name": "_tokenId",
          "type": "uint256"
        }
      ],
      "name": "Transfer",
      "type": "event"
    },
    {
      "anonymous": false,
      "inputs": [
        {
          "indexed": true,
          "name": "_owner",
          "type": "address"
        },
        {
          "indexed": true,
          "name": "_approved",
          "type": "address"
        },
        {
          "indexed": false,
          "name": "_tokenId",
          "type": "uint256"
        }
      ],
      "name": "Approval",
      "type": "event"
    },
    {
      "anonymous": false,
      "inputs": [
        {
          "indexed": true,
          "name": "_owner",
          "type": "address"
        },
        {
          "indexed": true,
          "name": "_operator",
          "type": "address"
        },
        {
          "indexed": false,
          "name": "_approved",
          "type": "bool"
        }
      ],
      "name": "ApprovalForAll",
      "type": "event"
    },
    {
      "constant": false,
      "inputs": [
        {
          "name": "_to",
          "type": "address"
        },
        {
          "name": "_uri",
          "type": "string"
        },
        {
          "name": "expTime",
          "type": "uint256"
        }
      ],
      "name": "IssueCertificateOld",
      "outputs": [],
      "payable": false,
      "stateMutability": "nonpayable",
      "type": "function"
    },
    {
      "constant": false,
      "inputs": [
        {
          "name": "_to",
          "type": "address"
        },
        {
          "name": "_uri",
          "type": "string"
        },
        {
          "name": "expirationTime",
          "type": "uint256"
        },
        {
          "name": "signAddr",
          "type": "address[]"
        },
        {
          "name": "names",
          "type": "string"
        }
      ],
      "name": "IssueCertificate",
      "outputs": [],
      "payable": false,
      "stateMutability": "nonpayable",
      "type": "function"
    },
    {
      "constant": false,
      "inputs": [
        {
          "name": "tokenId",
          "type": "uint256"
        },
        {
          "name": "signature",
          "type": "string"
        }
      ],
      "name": "signCertificate",
      "outputs": [],
      "payable": false,
      "stateMutability": "nonpayable",
      "type": "function"
    },
    {
      "constant": true,
      "inputs": [
        {
          "name": "tokenId",
          "type": "uint256"
        }
      ],
      "name": "getNumberOfSigners",
      "outputs": [
        {
          "name": "numberOfSigners",
          "type": "uint256"
        }
      ],
      "payable": false,
      "stateMutability": "view",
      "type": "function"
    },
    {
      "constant": true,
      "inputs": [
        {
          "name": "tokenId",
          "type": "uint256"
        },
        {
          "name": "index",
          "type": "uint256"
        }
      ],
      "name": "getSignature",
      "outputs": [
        {
          "name": "signature",
          "type": "string"
        }
      ],
      "payable": false,
      "stateMutability": "view",
      "type": "function"
    },
    {
      "constant": true,
      "inputs": [
        {
          "name": "tokenId",
          "type": "uint256"
        }
      ],
      "name": "GetIssuerAddressByTokenId",
      "outputs": [
        {
          "name": "Issuer",
          "type": "address"
        }
      ],
      "payable": false,
      "stateMutability": "view",
      "type": "function"
    },
    {
      "constant": true,
      "inputs": [
        {
          "name": "tokenId",
          "type": "uint256"
        }
      ],
      "name": "GetExpirationTimeByTokenId",
      "outputs": [
        {
          "name": "expirationTime",
          "type": "uint256"
        }
      ],
      "payable": false,
      "stateMutability": "view",
      "type": "function"
    },
    {
      "constant": false,
      "inputs": [],
      "name": "lockAccount",
      "outputs": [],
      "payable": false,
      "stateMutability": "nonpayable",
      "type": "function"
    },
    {
      "constant": true,
      "inputs": [],
      "name": "isAccountLocked",
      "outputs": [
        {
          "name": "locked",
          "type": "bool"
        }
      ],
      "payable": false,
      "stateMutability": "view",
      "type": "function"
    },
    {
      "constant": false,
      "inputs": [
        {
          "name": "tokenId",
          "type": "uint256"
        }
      ],
      "name": "deleteCertificate",
      "outputs": [],
      "payable": false,
      "stateMutability": "nonpayable",
      "type": "function"
    }
  ],
  "bytecode": "0x60c0604052600560808190527f50656f6e7900000000000000000000000000000000000000000000000000000060a09081526200004091600b919062000139565b506040805180820190915260038082527f504e59000000000000000000000000000000000000000000000000000000000060209092019182526200008791600c9162000139565b506001600d556064600e553480156200009f57600080fd5b50604080518082018252600581527f50656f6e7900000000000000000000000000000000000000000000000000000060208083019182528351808501909452600384527f504e5900000000000000000000000000000000000000000000000000000000009084015281519192916200011a9160049162000139565b5080516200013090600590602084019062000139565b505050620001de565b828054600181600116156101000203166002900490600052602060002090601f016020900481019282601f106200017c57805160ff1916838001178555620001ac565b82800160010185558215620001ac579182015b82811115620001ac5782518255916020019190600101906200018f565b50620001ba929150620001be565b5090565b620001db91905b80821115620001ba5760008155600101620001c5565b90565b611cbb80620001ee6000396000f3006080604052600436106101535763ffffffff7c010000000000000000000000000000000000000000000000000000000060003504166306e1976c811461015857806306fdde031461016f578063081812fc146101f9578063095ea7b31461022d57806318160ddd1461025157806323b872dd146102785780632b1f80ed146102a25780632f745c59146102ba5780633f02186e146102de57806342842e0e146102f65780634f558e79146103205780634f6ccce71461034c5780636352211e1461036457806366bc74b51461037c5780636a12874f146103da57806370a08231146103f557806375d1611e14610416578063841423581461042e578063883eeb6e1461051357806395d89b411461052b578063a22cb46514610540578063b88d4fde14610566578063bcaaf8cc146105d5578063c87b56dd1461063e578063e577bc3714610656578063e985e9c51461066b575b600080fd5b34801561016457600080fd5b5061016d610692565b005b34801561017b57600080fd5b506101846106dd565b6040805160208082528351818301528351919283929083019185019080838360005b838110156101be5781810151838201526020016101a6565b50505050905090810190601f1680156101eb5780820380516001836020036101000a031916815260200191505b509250505060405180910390f35b34801561020557600080fd5b50610211600435610774565b60408051600160a060020a039092168252519081900360200190f35b34801561023957600080fd5b5061016d600160a060020a036004351660243561078f565b34801561025d57600080fd5b5061026661088a565b60408051918252519081900360200190f35b34801561028457600080fd5b5061016d600160a060020a0360043581169060243516604435610890565b3480156102ae57600080fd5b5061021160043561093f565b3480156102c657600080fd5b50610266600160a060020a036004351660243561095a565b3480156102ea57600080fd5b506102666004356109a7565b34801561030257600080fd5b5061016d600160a060020a03600435811690602435166044356109b9565b34801561032c57600080fd5b506103386004356109f1565b604080519115158252519081900360200190f35b34801561035857600080fd5b50610266600435610a0e565b34801561037057600080fd5b50610211600435610a43565b34801561038857600080fd5b5060408051602060046024803582810135601f810185900485028601850190965285855261016d958335953695604494919390910191908190840183828082843750949750610a6d9650505050505050565b3480156103e657600080fd5b50610184600435602435610ac9565b34801561040157600080fd5b50610266600160a060020a0360043516610b8c565b34801561042257600080fd5b50610266600435610bbf565b34801561043a57600080fd5b5060408051602060046024803582810135601f810185900485028601850190965285855261016d958335600160a060020a031695369560449491939091019190819084018382808284375050604080516020808901358a01803580830284810184018652818552999c8b359c909b909a95019850929650810194509092508291908501908490808284375050604080516020601f89358b018035918201839004830284018301909452808352979a999881019791965091820194509250829150840183828082843750949750610bd19650505050505050565b34801561051f57600080fd5b5061016d600435610ef1565b34801561053757600080fd5b50610184610f24565b34801561054c57600080fd5b5061016d600160a060020a03600435166024351515610f85565b34801561057257600080fd5b50604080516020601f60643560048181013592830184900484028501840190955281845261016d94600160a060020a0381358116956024803590921695604435953695608494019181908401838280828437509497506110149650505050505050565b3480156105e157600080fd5b5060408051602060046024803582810135601f810185900485028601850190965285855261016d958335600160a060020a031695369560449491939091019190819084018382808284375094975050933594506110539350505050565b34801561064a57600080fd5b506101846004356111fd565b34801561066257600080fd5b506103386112b2565b34801561067757600080fd5b50610338600160a060020a03600435811690602435166112d1565b600160a060020a03331660009081526013602052604090205460ff16156106b857600080fd5b600160a060020a0333166000908152601360205260409020805460ff19166001179055565b60048054604080516020601f60026000196101006001881615020190951694909404938401819004810282018101909252828152606093909290918301828280156107695780601f1061073e57610100808354040283529160200191610769565b820191906000526020600020905b81548152906001019060200180831161074c57829003601f168201915b505050505090505b90565b600090815260016020526040902054600160a060020a031690565b600061079a82610a43565b9050600160a060020a0383811690821614156107b557600080fd5b80600160a060020a031633600160a060020a031614806107da57506107da81336112d1565b15156107e557600080fd5b60006107f083610774565b600160a060020a031614158061080e5750600160a060020a03831615155b1561088557600082815260016020908152604091829020805473ffffffffffffffffffffffffffffffffffffffff1916600160a060020a03878116918217909255835186815293519093918516927f8c5be1e5ebec7d5bd14f71427d1e84f3dd0314c0f7b2291e5b200ac8c7c3b925928290030190a35b505050565b60085490565b8061089b33826112ff565b15156108a657600080fd5b600160a060020a03841615156108bb57600080fd5b600160a060020a03831615156108d057600080fd5b6108da8483611360565b6108e4848361140e565b6108ee8383611547565b82600160a060020a031684600160a060020a03167fddf252ad1be2c89b69c2b068fc378daa952ba7f163c4a11628f55a4df523b3ef846040518082815260200191505060405180910390a350505050565b600090815260116020526040902054600160a060020a031690565b600061096583610b8c565b821061097057600080fd5b600160a060020a038316600090815260066020526040902080548390811061099457fe5b9060005260206000200154905092915050565b60009081526012602052604090205490565b806109c433826112ff565b15156109cf57600080fd5b6109eb8484846020604051908101604052806000815250611014565b50505050565b600090815260208190526040902054600160a060020a0316151590565b6000610a1861088a565b8210610a2357600080fd5b6008805483908110610a3157fe5b90600052602060002001549050919050565b600081815260208190526040812054600160a060020a0316801515610a6757600080fd5b92915050565b600160a060020a03331660009081526013602052604090205460ff1615610a9357600080fd5b6000828152601460209081526040808320600160a060020a03331684528252909120825161088592600290920191840190611b4b565b600082815260156020526040902080546060919083908110610ae757fe5b600091825260209182902060026003909202018101805460408051601f600019610100600186161502019093169490940491820185900485028401850190528083529192909190830182828015610b7f5780601f10610b5457610100808354040283529160200191610b7f565b820191906000526020600020905b815481529060010190602001808311610b6257829003601f168201915b5050505050905092915050565b6000600160a060020a0382161515610ba357600080fd5b50600160a060020a031660009081526002602052604090205490565b60009081526015602052604090205490565b600080610bdc611bc9565b610be4611bc9565b600160a060020a03331660009081526013602052604081205460ff1615610c0a57600080fd5b600d8054600181019091559450610c218a86611590565b610c2b858a6115df565b600160a060020a0333166000818152601060209081526040808320805460018101825590845282842081018a9055898452600f835281842081905560118352818420805473ffffffffffffffffffffffffffffffffffffffff1916909517909455601290915290208990559350610ca186611612565b9250610ce16040805190810160405280600181526020017f3b00000000000000000000000000000000000000000000000000000000000000815250611612565b9150600090505b8651811015610ee557604080516060810190915280610d15610d10868663ffffffff61163816565b61164b565b81526020018883815181101515610d2857fe5b6020908102909101810151600160a060020a031682526040805180830182526000808252938301528883526014909152812089519091908a9085908110610d6b57fe5b6020908102909101810151600160a060020a0316825281810192909252604001600020825180519192610da392849290910190611b4b565b5060208281015160018301805473ffffffffffffffffffffffffffffffffffffffff1916600160a060020a0390921691909117905560408301518051610def9260028501920190611b4b565b5050506000858152601560209081526040808320601490925282208951919290918a9085908110610e1c57fe5b6020908102909101810151600160a060020a0316825281810192909252604001600090812083546001818101808755958452939092208154919360039093020191610e7d918391859160026101009282161592909202600019011604611be0565b50600182810154828201805473ffffffffffffffffffffffffffffffffffffffff1916600160a060020a0390921691909117905560028084018054610ed5938386019390821615610100026000190190911604611be0565b505060019092019150610ce89050565b50505050505050505050565b600160a060020a03331660009081526013602052604090205460ff1615610f1757600080fd5b610f21338261140e565b50565b60058054604080516020601f60026000196101006001881615020190951694909404938401819004810282018101909252828152606093909290918301828280156107695780601f1061073e57610100808354040283529160200191610769565b33600160a060020a031682600160a060020a031614151515610fa657600080fd5b600160a060020a03338116600081815260036020908152604080832094871680845294825291829020805486151560ff199091168117909155825190815291517f17307eab39ab6107e8899845ad3d59bd9653f200f220920489ca2b5937696c319281900390910190a35050565b8161101f33826112ff565b151561102a57600080fd5b611035858585610890565b6110418585858561169e565b151561104c57600080fd5b5050505050565b600160a060020a03331660009081526013602052604090205460ff161561107957600080fd5b30600160a060020a0316638414235884848460006040519080825280602002602001820160405280156110b6578160200160208202803883390190505b506040518563ffffffff167c01000000000000000000000000000000000000000000000000000000000281526004018085600160a060020a0316600160a060020a03168152602001806020018481526020018060200180602001848103845287818151815260200191508051906020019080838360005b8381101561114557818101518382015260200161112d565b50505050905090810190601f1680156111725780820380516001836020036101000a031916815260200191505b508481038352855181528551602091820191808801910280838360005b838110156111a757818101518382015260200161118f565b50505050905001848103825260008152602001602001975050505050505050600060405180830381600087803b1580156111e057600080fd5b505af11580156111f4573d6000803e3d6000fd5b50505050505050565b6060611208826109f1565b151561121357600080fd5b6000828152600a602090815260409182902080548351601f6002600019610100600186161502019093169290920491820184900484028101840190945280845290918301828280156112a65780601f1061127b576101008083540402835291602001916112a6565b820191906000526020600020905b81548152906001019060200180831161128957829003601f168201915b50505050509050919050565b600160a060020a03331660009081526013602052604090205460ff1690565b600160a060020a03918216600090815260036020908152604080832093909416825291909152205460ff1690565b60008061130b83610a43565b905080600160a060020a031684600160a060020a03161480611346575083600160a060020a031661133b84610774565b600160a060020a0316145b80611356575061135681856112d1565b91505b5092915050565b81600160a060020a031661137382610a43565b600160a060020a03161461138657600080fd5b600081815260016020526040902054600160a060020a03161561140a576000818152600160209081526040808320805473ffffffffffffffffffffffffffffffffffffffff1916905580518481529051600160a060020a038616927f8c5be1e5ebec7d5bd14f71427d1e84f3dd0314c0f7b2291e5b200ac8c7c3b925928290030190a35b5050565b600080600061141d8585611827565b600084815260076020908152604080832054600160a060020a038916845260069092529091205490935061145890600163ffffffff6118bc16565b600160a060020a03861660009081526006602052604090208054919350908390811061148057fe5b90600052602060002001549050806006600087600160a060020a0316600160a060020a03168152602001908152602001600020848154811015156114c057fe5b6000918252602080832090910192909255600160a060020a03871681526006909152604081208054849081106114f257fe5b6000918252602080832090910192909255600160a060020a0387168152600690915260409020805490611529906000198301611c55565b50600093845260076020526040808520859055908452909220555050565b600061155383836118ce565b50600160a060020a039091166000908152600660209081526040808320805460018101825590845282842081018590559383526007909152902055565b61159a828261195d565b600880546000838152600960205260408120829055600182018355919091527ff3f7a9fe364faab93b216da50a3214154f22a0a2b415b23a84c8169e8b636ee3015550565b6115e8826109f1565b15156115f357600080fd5b6000828152600a60209081526040909120825161088592840190611b4b565b61161a611bc9565b50604080518082019091528151815260209182019181019190915290565b611640611bc9565b6113598383836119c1565b606080600083600001516040519080825280601f01601f191660200182016040528015611682578160200160208202803883390190505b5091506020820190506113598185602001518660000151611a32565b6000806116b385600160a060020a0316611a76565b15156116c2576001915061181e565b84600160a060020a031663f0b9e5ba8786866040518463ffffffff167c01000000000000000000000000000000000000000000000000000000000281526004018084600160a060020a0316600160a060020a0316815260200183815260200180602001828103825283818151815260200191508051906020019080838360005b8381101561175a578181015183820152602001611742565b50505050905090810190601f1680156117875780820380516001836020036101000a031916815260200191505b50945050505050602060405180830381600087803b1580156117a857600080fd5b505af11580156117bc573d6000803e3d6000fd5b505050506040513d60208110156117d257600080fd5b50517fffffffff0000000000000000000000000000000000000000000000000000000081167ff0b9e5ba0000000000000000000000000000000000000000000000000000000014925090505b50949350505050565b81600160a060020a031661183a82610a43565b600160a060020a03161461184d57600080fd5b600160a060020a03821660009081526002602052604090205461187790600163ffffffff6118bc16565b600160a060020a039092166000908152600260209081526040808320949094559181529081905220805473ffffffffffffffffffffffffffffffffffffffff19169055565b6000828211156118c857fe5b50900390565b600081815260208190526040902054600160a060020a0316156118f057600080fd5b600081815260208181526040808320805473ffffffffffffffffffffffffffffffffffffffff1916600160a060020a0387169081179091558352600290915290205461193d906001611a7e565b600160a060020a0390921660009081526002602052604090209190915550565b600160a060020a038216151561197257600080fd5b61197c8282611547565b604080518281529051600160a060020a038416916000917fddf252ad1be2c89b69c2b068fc378daa952ba7f163c4a11628f55a4df523b3ef9181900360200190a35050565b6119c9611bc9565b60006119e78560000151866020015186600001518760200151611a8b565b60208087018051918601919091528051820385528651905191925001811415611a135760008552611a29565b8351835186519101900385528351810160208601525b50909392505050565b60005b60208210611a57578251845260209384019390920191601f1990910190611a35565b50905182516020929092036101000a6000190180199091169116179052565b6000903b1190565b81810182811015610a6757fe5b600083818080808080808c8b11611b355760208b11611afe5760018b60200360080260020a03196001029550858a511694508a8d8d010393508588511692505b828514611af657838810611ae3578c8c019850611b3b565b8780600101985050858851169250611acb565b879850611b3b565b8a8a209150600096505b8a8d038711611b35575089872081811415611b2557879850611b3b565b6001978801979690960195611b08565b8c8c0198505b5050505050505050949350505050565b828054600181600116156101000203166002900490600052602060002090601f016020900481019282601f10611b8c57805160ff1916838001178555611bb9565b82800160010185558215611bb9579182015b82811115611bb9578251825591602001919060010190611b9e565b50611bc5929150611c75565b5090565b604080518082019091526000808252602082015290565b828054600181600116156101000203166002900490600052602060002090601f016020900481019282601f10611c195780548555611bb9565b82800160010185558215611bb957600052602060002091601f016020900482015b82811115611bb9578254825591600101919060010190611c3a565b815481835581811115610885576000838152602090206108859181019083015b61077191905b80821115611bc55760008155600101611c7b5600a165627a7a72305820d509645083ff1a8d9a43ed0d74c2798f480dcc1dea114d7f1f7cf9c3a6bcd03f0029",
  "source": "pragma solidity ^0.4.18;\r\nimport \"zeppelin-solidity/contracts/token/ERC721/ERC721Token.sol\";\r\nimport \"./lib/strings.sol\";\r\n// References: https://github.com/OpenZeppelin/openzeppelin-solidity/blob/v1.8.0/contracts/token/ERC721/ERC721Token.sol\r\n\r\ncontract PeonyCertificate is ERC721Token (\"Peony\", \"PNY\") {\r\n    using strings for *;\r\n    // These two are included in the open lib\r\n    string internal name_ = \"Peony\";\r\n    string internal symbol_ = \"PNY\";\r\n\r\n    uint256 erc721TokenId = 1; // default tokenId for helping people to create unique id\r\n    //Decalre max length of the names to accept\r\n    uint256 MAX_LENGTH = 100;\r\n    // our additional attirbutes for Issuer\r\n    // Mapping from token ID to index of the issuer's issued tokens list\r\n    mapping(uint256 => uint256) internal issuedTokensIndex;\r\n\r\n    // Mapping from issuer to list of issued token IDs\r\n    mapping (address => uint256[]) internal issuedTokens;\r\n\r\n    // Mapping from token ID to issuer\r\n    mapping (uint256 => address) internal tokenIssuer;\r\n\r\n    // Mapping from token ID to Expiration time\r\n    mapping (uint256 => uint256) internal certificateExpirationTime;\r\n\r\n    // Mapping from token ID to Valid Cert\r\n    // mapping (uint256 => uint256) internal certificateIsValid;\r\n\r\n    // Mapping from address to lockdown  (for account getting hacked, \r\n    // so owner will have ability to 'lock down' the account)\r\n    mapping (address => bool) internal lockedDownAddresses;\r\n\r\n    struct Signer{\r\n        string name;\r\n        address singerAddr;\r\n        string signature;\r\n    }\r\n\r\n    // Mapping tokenId to Signer Struct \r\n    mapping (uint256 => mapping(address => Signer)) TokenSigners;\r\n\r\n    // Mapping to a list of signers\r\n    mapping (uint256 => Signer[]) TokenSignersList;\r\n\r\n    // constructor\r\n    function PeonyCertificate() public { \r\n        //Do some initialization\r\n    }\r\n\r\n    \r\n    modifier onlyUnlocked() {\r\n        require(!lockedDownAddresses[msg.sender]);\r\n        _;\r\n    }\r\n\r\n    // OverLoaded function for regression\r\n    function IssueCertificateOld(address _to, string _uri, uint256 expTime) onlyUnlocked public {\r\n        this.IssueCertificate(_to, _uri, expTime, new address[](0), \"\");\r\n    }\r\n\r\n    // Function to issue certificate to a receiver\r\n    // _to   : The recipient's wallet address\r\n    // _uri  : The JSON string data that we will put in certificate\r\n    // expirationTime  : The time of expiration\r\n    // signAddr : The list of addresses to be the signer of the certificate (those signer will need to get on and sign it individually later on)\r\n    // names  : The names of the signers (is ';' delimetered string)\r\n    function IssueCertificate(address _to, string _uri, uint256 expirationTime, address[] signAddr, string names) onlyUnlocked public {\r\n        uint256 newTokenId = erc721TokenId++;\r\n        super._mint(_to, newTokenId);\r\n        super._setTokenURI(newTokenId, _uri);\r\n        // Update issuer data and Addition Peony Features\r\n        uint256 issuerLength = issuedTokens[msg.sender].length;\r\n        issuedTokens[msg.sender].push(newTokenId);\r\n        issuedTokensIndex[newTokenId] = issuerLength;\r\n        tokenIssuer[newTokenId] = msg.sender;\r\n        // Add expireationTime stamp\r\n        certificateExpirationTime[newTokenId] = expirationTime;\r\n        // Get names ready to be split by strings.sol\r\n        var sliceName = names.toSlice();\r\n        var delim = \";\".toSlice();\r\n        // Add signers to the token list\r\n        for(uint256 i = 0 ; i < signAddr.length ; i++){\r\n            TokenSigners[newTokenId][signAddr[i]] = Signer(sliceName.split(delim).toString(), signAddr[i], \"\");\r\n            //share the referneces so can share the same updates actions\r\n            TokenSignersList[newTokenId].push(TokenSigners[newTokenId][signAddr[i]]); \r\n        }\r\n    }\r\n\r\n    //For signer to find a particular tokenId and sign the certificate\r\n    function signCertificate(uint256 tokenId, string signature) onlyUnlocked public {\r\n        //signatures[tokenId][msg.sender] = signature;\r\n        TokenSigners[tokenId][msg.sender].signature = signature;\r\n    }\r\n\r\n    //Get total number of signer\r\n    function getNumberOfSigners(uint256 tokenId) public view returns(uint256 numberOfSigners) {\r\n        return TokenSignersList[tokenId].length;\r\n    }\r\n\r\n    //Get signature from certificate signers list\r\n    function getSignature(uint256 tokenId, uint256 index) public view returns(string signature){\r\n        return TokenSignersList[tokenId][index].signature;\r\n    }\r\n\r\n    // Get Issuer address from provided tokentId\r\n    // 0: meaning the tokenId doesn't have mapped Issuer Address (more likely there is no such token)\r\n    function GetIssuerAddressByTokenId(uint256 tokenId) public view returns(address Issuer) {\r\n        return tokenIssuer[tokenId];\r\n    }\r\n\r\n    // Get Issuer address from provided tokentId\r\n    // 0: meaning the tokenId doesn't have mapped Issuer Address (more likely there is no such token)\r\n    function GetExpirationTimeByTokenId(uint256 tokenId) public view returns(uint256 expirationTime) {\r\n        return certificateExpirationTime[tokenId];\r\n    }\r\n\r\n    // Emergency kill button for issuer\r\n    // When user's private key is stolen, so user can lock the account so it won't be able to issue any more certificates\r\n    function lockAccount() onlyUnlocked public {\r\n        lockedDownAddresses[msg.sender] = true;\r\n    }\r\n\r\n    // Helper view function to check if the account is locked\r\n    function isAccountLocked() public view returns(bool locked){\r\n        return lockedDownAddresses[msg.sender];\r\n    }\r\n\r\n    // Function to remove token from owner  for allowing users to remove unwanted certificates\r\n    function deleteCertificate(uint256 tokenId) onlyUnlocked public{\r\n        removeTokenFrom(msg.sender, tokenId);\r\n    }\r\n     \r\n}\r\n",
  "sourcePath": "C:\\workspaces\\Peony_Assignment\\contracts\\PeonyCertificate.sol",
  "compiler": {
    "name": "solc",
    "version": "0.4.23+commit.124ca40d.Emscripten.clang"
  },
  "schemaVersion": "2.0.0",
  "updatedAt": "2018-06-01T10:37:02.677Z"
}