{
  "contractName": "PeonyCertificate",
  "abi": [
    {
      "constant": true,
      "inputs": [],
      "name": "name",
      "outputs": [
        {
          "name": "",
          "type": "string"
        }
      ],
      "payable": false,
      "stateMutability": "view",
      "type": "function"
    },
    {
      "constant": true,
      "inputs": [
        {
          "name": "_tokenId",
          "type": "uint256"
        }
      ],
      "name": "getApproved",
      "outputs": [
        {
          "name": "",
          "type": "address"
        }
      ],
      "payable": false,
      "stateMutability": "view",
      "type": "function"
    },
    {
      "constant": false,
      "inputs": [
        {
          "name": "_to",
          "type": "address"
        },
        {
          "name": "_tokenId",
          "type": "uint256"
        }
      ],
      "name": "approve",
      "outputs": [],
      "payable": false,
      "stateMutability": "nonpayable",
      "type": "function"
    },
    {
      "constant": true,
      "inputs": [],
      "name": "totalSupply",
      "outputs": [
        {
          "name": "",
          "type": "uint256"
        }
      ],
      "payable": false,
      "stateMutability": "view",
      "type": "function"
    },
    {
      "constant": false,
      "inputs": [
        {
          "name": "_from",
          "type": "address"
        },
        {
          "name": "_to",
          "type": "address"
        },
        {
          "name": "_tokenId",
          "type": "uint256"
        }
      ],
      "name": "transferFrom",
      "outputs": [],
      "payable": false,
      "stateMutability": "nonpayable",
      "type": "function"
    },
    {
      "constant": true,
      "inputs": [
        {
          "name": "_owner",
          "type": "address"
        },
        {
          "name": "_index",
          "type": "uint256"
        }
      ],
      "name": "tokenOfOwnerByIndex",
      "outputs": [
        {
          "name": "",
          "type": "uint256"
        }
      ],
      "payable": false,
      "stateMutability": "view",
      "type": "function"
    },
    {
      "constant": false,
      "inputs": [
        {
          "name": "_from",
          "type": "address"
        },
        {
          "name": "_to",
          "type": "address"
        },
        {
          "name": "_tokenId",
          "type": "uint256"
        }
      ],
      "name": "safeTransferFrom",
      "outputs": [],
      "payable": false,
      "stateMutability": "nonpayable",
      "type": "function"
    },
    {
      "constant": true,
      "inputs": [
        {
          "name": "_tokenId",
          "type": "uint256"
        }
      ],
      "name": "exists",
      "outputs": [
        {
          "name": "",
          "type": "bool"
        }
      ],
      "payable": false,
      "stateMutability": "view",
      "type": "function"
    },
    {
      "constant": true,
      "inputs": [
        {
          "name": "_index",
          "type": "uint256"
        }
      ],
      "name": "tokenByIndex",
      "outputs": [
        {
          "name": "",
          "type": "uint256"
        }
      ],
      "payable": false,
      "stateMutability": "view",
      "type": "function"
    },
    {
      "constant": true,
      "inputs": [
        {
          "name": "_tokenId",
          "type": "uint256"
        }
      ],
      "name": "ownerOf",
      "outputs": [
        {
          "name": "",
          "type": "address"
        }
      ],
      "payable": false,
      "stateMutability": "view",
      "type": "function"
    },
    {
      "constant": true,
      "inputs": [
        {
          "name": "_owner",
          "type": "address"
        }
      ],
      "name": "balanceOf",
      "outputs": [
        {
          "name": "",
          "type": "uint256"
        }
      ],
      "payable": false,
      "stateMutability": "view",
      "type": "function"
    },
    {
      "constant": true,
      "inputs": [],
      "name": "symbol",
      "outputs": [
        {
          "name": "",
          "type": "string"
        }
      ],
      "payable": false,
      "stateMutability": "view",
      "type": "function"
    },
    {
      "constant": false,
      "inputs": [
        {
          "name": "_to",
          "type": "address"
        },
        {
          "name": "_approved",
          "type": "bool"
        }
      ],
      "name": "setApprovalForAll",
      "outputs": [],
      "payable": false,
      "stateMutability": "nonpayable",
      "type": "function"
    },
    {
      "constant": false,
      "inputs": [
        {
          "name": "_from",
          "type": "address"
        },
        {
          "name": "_to",
          "type": "address"
        },
        {
          "name": "_tokenId",
          "type": "uint256"
        },
        {
          "name": "_data",
          "type": "bytes"
        }
      ],
      "name": "safeTransferFrom",
      "outputs": [],
      "payable": false,
      "stateMutability": "nonpayable",
      "type": "function"
    },
    {
      "constant": true,
      "inputs": [
        {
          "name": "_tokenId",
          "type": "uint256"
        }
      ],
      "name": "tokenURI",
      "outputs": [
        {
          "name": "",
          "type": "string"
        }
      ],
      "payable": false,
      "stateMutability": "view",
      "type": "function"
    },
    {
      "constant": true,
      "inputs": [
        {
          "name": "_owner",
          "type": "address"
        },
        {
          "name": "_operator",
          "type": "address"
        }
      ],
      "name": "isApprovedForAll",
      "outputs": [
        {
          "name": "",
          "type": "bool"
        }
      ],
      "payable": false,
      "stateMutability": "view",
      "type": "function"
    },
    {
      "inputs": [],
      "payable": false,
      "stateMutability": "nonpayable",
      "type": "constructor"
    },
    {
      "anonymous": false,
      "inputs": [
        {
          "indexed": true,
          "name": "_from",
          "type": "address"
        },
        {
          "indexed": true,
          "name": "_to",
          "type": "address"
        },
        {
          "indexed": false,
          "name": "_tokenId",
          "type": "uint256"
        }
      ],
      "name": "Transfer",
      "type": "event"
    },
    {
      "anonymous": false,
      "inputs": [
        {
          "indexed": true,
          "name": "_owner",
          "type": "address"
        },
        {
          "indexed": true,
          "name": "_approved",
          "type": "address"
        },
        {
          "indexed": false,
          "name": "_tokenId",
          "type": "uint256"
        }
      ],
      "name": "Approval",
      "type": "event"
    },
    {
      "anonymous": false,
      "inputs": [
        {
          "indexed": true,
          "name": "_owner",
          "type": "address"
        },
        {
          "indexed": true,
          "name": "_operator",
          "type": "address"
        },
        {
          "indexed": false,
          "name": "_approved",
          "type": "bool"
        }
      ],
      "name": "ApprovalForAll",
      "type": "event"
    },
    {
      "constant": false,
      "inputs": [
        {
          "name": "_to",
          "type": "address"
        },
        {
          "name": "_uri",
          "type": "string"
        },
        {
          "name": "expirationTime",
          "type": "uint256"
        }
      ],
      "name": "IssueCertificate",
      "outputs": [],
      "payable": false,
      "stateMutability": "nonpayable",
      "type": "function"
    },
    {
      "constant": false,
      "inputs": [
        {
          "name": "_to",
          "type": "address"
        },
        {
          "name": "_uri",
          "type": "string"
        }
      ],
      "name": "IssueCertificate",
      "outputs": [],
      "payable": false,
      "stateMutability": "nonpayable",
      "type": "function"
    },
    {
      "constant": true,
      "inputs": [
        {
          "name": "tokenId",
          "type": "uint256"
        }
      ],
      "name": "GetIssuerAddressByTokenId",
      "outputs": [
        {
          "name": "Issuer",
          "type": "address"
        }
      ],
      "payable": false,
      "stateMutability": "view",
      "type": "function"
    },
    {
      "constant": true,
      "inputs": [
        {
          "name": "tokenId",
          "type": "uint256"
        }
      ],
      "name": "GetExpirationTimeByTokenId",
      "outputs": [
        {
          "name": "expirationTime",
          "type": "uint256"
        }
      ],
      "payable": false,
      "stateMutability": "view",
      "type": "function"
    }
  ],
  "bytecode": "0x60c0604052600560808190527f50656f6e7900000000000000000000000000000000000000000000000000000060a09081526200004091600b919062000134565b506040805180820190915260038082527f504e59000000000000000000000000000000000000000000000000000000000060209092019182526200008791600c9162000134565b506001600d553480156200009a57600080fd5b50604080518082018252600581527f50656f6e7900000000000000000000000000000000000000000000000000000060208083019182528351808501909452600384527f504e590000000000000000000000000000000000000000000000000000000000908401528151919291620001159160049162000134565b5080516200012b90600590602084019062000134565b505050620001d9565b828054600181600116156101000203166002900490600052602060002090601f016020900481019282601f106200017757805160ff1916838001178555620001a7565b82800160010185558215620001a7579182015b82811115620001a75782518255916020019190600101906200018a565b50620001b5929150620001b9565b5090565b620001d691905b80821115620001b55760008155600101620001c0565b90565b61139780620001e96000396000f3006080604052600436106101115763ffffffff7c010000000000000000000000000000000000000000000000000000000060003504166306fdde038114610116578063081812fc146101a0578063095ea7b3146101d457806318160ddd146101fa57806323b872dd146102215780632b1f80ed1461024b5780632f745c59146102635780633f02186e1461028757806342842e0e1461029f5780634f558e79146102c95780634f6ccce7146102f55780636352211e1461030d57806364113c4d1461032557806370a082311461038e57806395d89b41146103af578063a22cb465146103c4578063a8d65f22146103ea578063b88d4fde14610451578063c87b56dd146104c0578063e985e9c5146104d8575b600080fd5b34801561012257600080fd5b5061012b6104ff565b6040805160208082528351818301528351919283929083019185019080838360005b8381101561016557818101518382015260200161014d565b50505050905090810190601f1680156101925780820380516001836020036101000a031916815260200191505b509250505060405180910390f35b3480156101ac57600080fd5b506101b8600435610596565b60408051600160a060020a039092168252519081900360200190f35b3480156101e057600080fd5b506101f8600160a060020a03600435166024356105b1565b005b34801561020657600080fd5b5061020f6106ac565b60408051918252519081900360200190f35b34801561022d57600080fd5b506101f8600160a060020a03600435811690602435166044356106b2565b34801561025757600080fd5b506101b8600435610761565b34801561026f57600080fd5b5061020f600160a060020a036004351660243561077c565b34801561029357600080fd5b5061020f6004356107c9565b3480156102ab57600080fd5b506101f8600160a060020a03600435811690602435166044356107db565b3480156102d557600080fd5b506102e1600435610813565b604080519115158252519081900360200190f35b34801561030157600080fd5b5061020f600435610830565b34801561031957600080fd5b506101b8600435610865565b34801561033157600080fd5b5060408051602060046024803582810135601f81018590048502860185019096528585526101f8958335600160a060020a0316953695604494919390910191908190840183828082843750949750509335945061088f9350505050565b34801561039a57600080fd5b5061020f600160a060020a036004351661091e565b3480156103bb57600080fd5b5061012b610951565b3480156103d057600080fd5b506101f8600160a060020a036004351660243515156109b2565b3480156103f657600080fd5b5060408051602060046024803582810135601f81018590048502860185019096528585526101f8958335600160a060020a0316953695604494919390910191908190840183828082843750949750610a419650505050505050565b34801561045d57600080fd5b50604080516020601f6064356004818101359283018490048402850184019095528184526101f894600160a060020a038135811695602480359092169560443595369560849401918190840183828082843750949750610b449650505050505050565b3480156104cc57600080fd5b5061012b600435610b83565b3480156104e457600080fd5b506102e1600160a060020a0360043581169060243516610c38565b60048054604080516020601f600260001961010060018816150201909516949094049384018190048102820181019092528281526060939092909183018282801561058b5780601f106105605761010080835404028352916020019161058b565b820191906000526020600020905b81548152906001019060200180831161056e57829003601f168201915b505050505090505b90565b600090815260016020526040902054600160a060020a031690565b60006105bc82610865565b9050600160a060020a0383811690821614156105d757600080fd5b80600160a060020a031633600160a060020a031614806105fc57506105fc8133610c38565b151561060757600080fd5b600061061283610596565b600160a060020a03161415806106305750600160a060020a03831615155b156106a757600082815260016020908152604091829020805473ffffffffffffffffffffffffffffffffffffffff1916600160a060020a03878116918217909255835186815293519093918516927f8c5be1e5ebec7d5bd14f71427d1e84f3dd0314c0f7b2291e5b200ac8c7c3b925928290030190a35b505050565b60085490565b806106bd3382610c66565b15156106c857600080fd5b600160a060020a03841615156106dd57600080fd5b600160a060020a03831615156106f257600080fd5b6106fc8483610cc5565b6107068483610d73565b6107108383610eac565b82600160a060020a031684600160a060020a03167fddf252ad1be2c89b69c2b068fc378daa952ba7f163c4a11628f55a4df523b3ef846040518082815260200191505060405180910390a350505050565b600090815260106020526040902054600160a060020a031690565b60006107878361091e565b821061079257600080fd5b600160a060020a03831660009081526006602052604090208054839081106107b657fe5b9060005260206000200154905092915050565b60009081526011602052604090205490565b806107e63382610c66565b15156107f157600080fd5b61080d8484846020604051908101604052806000815250610b44565b50505050565b600090815260208190526040902054600160a060020a0316151590565b600061083a6106ac565b821061084557600080fd5b600880548390811061085357fe5b90600052602060002001549050919050565b600081815260208190526040812054600160a060020a031680151561088957600080fd5b92915050565b600d80546001810190915560006108a68583610ef5565b6108b08285610f44565b50600160a060020a0333166000818152600f6020908152604080832080546001810182559084528284208101869055948352600e82528083209490945560108152838220805473ffffffffffffffffffffffffffffffffffffffff1916909317909255601190915220555050565b6000600160a060020a038216151561093557600080fd5b50600160a060020a031660009081526002602052604090205490565b60058054604080516020601f600260001961010060018816150201909516949094049384018190048102820181019092528281526060939092909183018282801561058b5780601f106105605761010080835404028352916020019161058b565b33600160a060020a031682600160a060020a0316141515156109d357600080fd5b600160a060020a03338116600081815260036020908152604080832094871680845294825291829020805486151560ff199091168117909155825190815291517f17307eab39ab6107e8899845ad3d59bd9653f200f220920489ca2b5937696c319281900390910190a35050565b30600160a060020a03166364113c4d838360006040518463ffffffff167c01000000000000000000000000000000000000000000000000000000000281526004018084600160a060020a0316600160a060020a0316815260200180602001838152602001828103825284818151815260200191508051906020019080838360005b83811015610ada578181015183820152602001610ac2565b50505050905090810190601f168015610b075780820380516001836020036101000a031916815260200191505b50945050505050600060405180830381600087803b158015610b2857600080fd5b505af1158015610b3c573d6000803e3d6000fd5b505050505050565b81610b4f3382610c66565b1515610b5a57600080fd5b610b658585856106b2565b610b7185858585610f77565b1515610b7c57600080fd5b5050505050565b6060610b8e82610813565b1515610b9957600080fd5b6000828152600a602090815260409182902080548351601f600260001961010060018616150201909316929092049182018490048402810184019094528084529091830182828015610c2c5780601f10610c0157610100808354040283529160200191610c2c565b820191906000526020600020905b815481529060010190602001808311610c0f57829003601f168201915b50505050509050919050565b600160a060020a03918216600090815260036020908152604080832093909416825291909152205460ff1690565b600080610c7283610865565b905080600160a060020a031684600160a060020a03161480610cad575083600160a060020a0316610ca284610596565b600160a060020a0316145b80610cbd5750610cbd8185610c38565b949350505050565b81600160a060020a0316610cd882610865565b600160a060020a031614610ceb57600080fd5b600081815260016020526040902054600160a060020a031615610d6f576000818152600160209081526040808320805473ffffffffffffffffffffffffffffffffffffffff1916905580518481529051600160a060020a038616927f8c5be1e5ebec7d5bd14f71427d1e84f3dd0314c0f7b2291e5b200ac8c7c3b925928290030190a35b5050565b6000806000610d828585611100565b600084815260076020908152604080832054600160a060020a0389168452600690925290912054909350610dbd90600163ffffffff61119516565b600160a060020a038616600090815260066020526040902080549193509083908110610de557fe5b90600052602060002001549050806006600087600160a060020a0316600160a060020a0316815260200190815260200160002084815481101515610e2557fe5b6000918252602080832090910192909255600160a060020a0387168152600690915260408120805484908110610e5757fe5b6000918252602080832090910192909255600160a060020a0387168152600690915260409020805490610e8e9060001983016112af565b50600093845260076020526040808520859055908452909220555050565b6000610eb883836111a7565b50600160a060020a039091166000908152600660209081526040808320805460018101825590845282842081018590559383526007909152902055565b610eff8282611236565b600880546000838152600960205260408120829055600182018355919091527ff3f7a9fe364faab93b216da50a3214154f22a0a2b415b23a84c8169e8b636ee3015550565b610f4d82610813565b1515610f5857600080fd5b6000828152600a6020908152604090912082516106a7928401906112d3565b600080610f8c85600160a060020a031661129a565b1515610f9b57600191506110f7565b84600160a060020a031663f0b9e5ba8786866040518463ffffffff167c01000000000000000000000000000000000000000000000000000000000281526004018084600160a060020a0316600160a060020a0316815260200183815260200180602001828103825283818151815260200191508051906020019080838360005b8381101561103357818101518382015260200161101b565b50505050905090810190601f1680156110605780820380516001836020036101000a031916815260200191505b50945050505050602060405180830381600087803b15801561108157600080fd5b505af1158015611095573d6000803e3d6000fd5b505050506040513d60208110156110ab57600080fd5b50517fffffffff0000000000000000000000000000000000000000000000000000000081167ff0b9e5ba0000000000000000000000000000000000000000000000000000000014925090505b50949350505050565b81600160a060020a031661111382610865565b600160a060020a03161461112657600080fd5b600160a060020a03821660009081526002602052604090205461115090600163ffffffff61119516565b600160a060020a039092166000908152600260209081526040808320949094559181529081905220805473ffffffffffffffffffffffffffffffffffffffff19169055565b6000828211156111a157fe5b50900390565b600081815260208190526040902054600160a060020a0316156111c957600080fd5b600081815260208181526040808320805473ffffffffffffffffffffffffffffffffffffffff1916600160a060020a038716908117909155835260029091529020546112169060016112a2565b600160a060020a0390921660009081526002602052604090209190915550565b600160a060020a038216151561124b57600080fd5b6112558282610eac565b604080518281529051600160a060020a038416916000917fddf252ad1be2c89b69c2b068fc378daa952ba7f163c4a11628f55a4df523b3ef9181900360200190a35050565b6000903b1190565b8181018281101561088957fe5b8154818355818111156106a7576000838152602090206106a7918101908301611351565b828054600181600116156101000203166002900490600052602060002090601f016020900481019282601f1061131457805160ff1916838001178555611341565b82800160010185558215611341579182015b82811115611341578251825591602001919060010190611326565b5061134d929150611351565b5090565b61059391905b8082111561134d57600081556001016113575600a165627a7a72305820449e49a66e32bd75803d2810e0b5eb92e3dcfcc8d27e4f285058ff6da0d013ff0029",
  "source": "pragma solidity ^0.4.18;\r\nimport \"zeppelin-solidity/contracts/token/ERC721/ERC721Token.sol\";\r\n// References: https://github.com/OpenZeppelin/openzeppelin-solidity/blob/v1.8.0/contracts/token/ERC721/ERC721Token.sol\r\n\r\ncontract PeonyCertificate is ERC721Token (\"Peony\", \"PNY\") {\r\n    // These two are included in the open lib\r\n    string internal name_ = \"Peony\";\r\n    string internal symbol_ = \"PNY\";\r\n    uint256 tokenId = 1; // default tokenId for helping people to create unique id\r\n\r\n    // our additional attirbutes for Issuer\r\n    // Mapping from token ID to index of the issuer's issued tokens list\r\n    mapping(uint256 => uint256) internal issuedTokensIndex;\r\n\r\n    // Mapping from issuer to list of issued token IDs\r\n    mapping (address => uint256[]) internal issuedTokens;\r\n\r\n    // Mapping from token ID to issuer\r\n    mapping (uint256 => address) internal tokenIssuer;\r\n\r\n    // Mapping from token ID to Expiration time\r\n    mapping (uint256 => uint256) internal certificateExpirationTime;\r\n    \r\n    // constructor\r\n    function PeonyCertificate() public { \r\n\r\n    }\r\n\r\n    // Function to issue certificate to a receiver\r\n    // _uri  : The JSON string data that we will put in certificate\r\n    function IssueCertificate(address _to, string _uri) public {\r\n        this.IssueCertificate(_to, _uri, 0);\r\n    }\r\n\r\n    // OverLoaded function for regression\r\n    function IssueCertificate(address _to, string _uri, uint256 expirationTime) public {\r\n        uint256 newTokenId = tokenId++;\r\n        super._mint(_to, newTokenId);\r\n        //super._mint(_to, newTokenId, expirationTime); // not tested.. if set it here, need change mint\r\n        super._setTokenURI(newTokenId, _uri);\r\n        // Update issuer data and Addition Peony Features\r\n        uint256 issuerLength = issuedTokens[msg.sender].length;\r\n        issuedTokens[msg.sender].push(newTokenId);\r\n        issuedTokensIndex[newTokenId] = issuerLength;\r\n        tokenIssuer[newTokenId] = msg.sender;\r\n        // Add expireationTime stamp\r\n        certificateExpirationTime[newTokenId] = expirationTime;\r\n    }\r\n\r\n    // Get Issuer address from provided tokentId\r\n    // 0: meaning the tokenId doesn't have mapped Issuer Address (more likely there is no such token)\r\n    function GetIssuerAddressByTokenId(uint256 tokenId) public view returns(address Issuer){\r\n        return tokenIssuer[tokenId];\r\n    }\r\n\r\n        // Get Issuer address from provided tokentId\r\n    // 0: meaning the tokenId doesn't have mapped Issuer Address (more likely there is no such token)\r\n    function GetExpirationTimeByTokenId(uint256 tokenId) public view returns(uint256 expirationTime){\r\n        return certificateExpirationTime[tokenId];\r\n    }\r\n}\r\n",
  "sourcePath": "C:\\workspaces\\Peony_Assignment\\contracts\\PeonyCertificate.sol",
  "compiler": {
    "name": "solc",
    "version": "0.4.23+commit.124ca40d.Emscripten.clang"
  },
  "schemaVersion": "2.0.0",
  "updatedAt": "2018-05-21T08:10:03.670Z"
}