{
  "contractName": "PeonyCertificate",
  "abi": [
    {
      "constant": true,
      "inputs": [],
      "name": "name",
      "outputs": [
        {
          "name": "",
          "type": "string"
        }
      ],
      "payable": false,
      "stateMutability": "view",
      "type": "function"
    },
    {
      "constant": true,
      "inputs": [
        {
          "name": "_tokenId",
          "type": "uint256"
        }
      ],
      "name": "getApproved",
      "outputs": [
        {
          "name": "",
          "type": "address"
        }
      ],
      "payable": false,
      "stateMutability": "view",
      "type": "function"
    },
    {
      "constant": false,
      "inputs": [
        {
          "name": "_to",
          "type": "address"
        },
        {
          "name": "_tokenId",
          "type": "uint256"
        }
      ],
      "name": "approve",
      "outputs": [],
      "payable": false,
      "stateMutability": "nonpayable",
      "type": "function"
    },
    {
      "constant": true,
      "inputs": [],
      "name": "totalSupply",
      "outputs": [
        {
          "name": "",
          "type": "uint256"
        }
      ],
      "payable": false,
      "stateMutability": "view",
      "type": "function"
    },
    {
      "constant": false,
      "inputs": [
        {
          "name": "_from",
          "type": "address"
        },
        {
          "name": "_to",
          "type": "address"
        },
        {
          "name": "_tokenId",
          "type": "uint256"
        }
      ],
      "name": "transferFrom",
      "outputs": [],
      "payable": false,
      "stateMutability": "nonpayable",
      "type": "function"
    },
    {
      "constant": true,
      "inputs": [
        {
          "name": "_owner",
          "type": "address"
        },
        {
          "name": "_index",
          "type": "uint256"
        }
      ],
      "name": "tokenOfOwnerByIndex",
      "outputs": [
        {
          "name": "",
          "type": "uint256"
        }
      ],
      "payable": false,
      "stateMutability": "view",
      "type": "function"
    },
    {
      "constant": false,
      "inputs": [
        {
          "name": "_from",
          "type": "address"
        },
        {
          "name": "_to",
          "type": "address"
        },
        {
          "name": "_tokenId",
          "type": "uint256"
        }
      ],
      "name": "safeTransferFrom",
      "outputs": [],
      "payable": false,
      "stateMutability": "nonpayable",
      "type": "function"
    },
    {
      "constant": true,
      "inputs": [
        {
          "name": "_tokenId",
          "type": "uint256"
        }
      ],
      "name": "exists",
      "outputs": [
        {
          "name": "",
          "type": "bool"
        }
      ],
      "payable": false,
      "stateMutability": "view",
      "type": "function"
    },
    {
      "constant": true,
      "inputs": [
        {
          "name": "_index",
          "type": "uint256"
        }
      ],
      "name": "tokenByIndex",
      "outputs": [
        {
          "name": "",
          "type": "uint256"
        }
      ],
      "payable": false,
      "stateMutability": "view",
      "type": "function"
    },
    {
      "constant": true,
      "inputs": [],
      "name": "VV",
      "outputs": [
        {
          "name": "",
          "type": "bytes32"
        }
      ],
      "payable": false,
      "stateMutability": "view",
      "type": "function"
    },
    {
      "constant": true,
      "inputs": [
        {
          "name": "_tokenId",
          "type": "uint256"
        }
      ],
      "name": "ownerOf",
      "outputs": [
        {
          "name": "",
          "type": "address"
        }
      ],
      "payable": false,
      "stateMutability": "view",
      "type": "function"
    },
    {
      "constant": true,
      "inputs": [
        {
          "name": "_owner",
          "type": "address"
        }
      ],
      "name": "balanceOf",
      "outputs": [
        {
          "name": "",
          "type": "uint256"
        }
      ],
      "payable": false,
      "stateMutability": "view",
      "type": "function"
    },
    {
      "constant": true,
      "inputs": [],
      "name": "symbol",
      "outputs": [
        {
          "name": "",
          "type": "string"
        }
      ],
      "payable": false,
      "stateMutability": "view",
      "type": "function"
    },
    {
      "constant": false,
      "inputs": [
        {
          "name": "_to",
          "type": "address"
        },
        {
          "name": "_approved",
          "type": "bool"
        }
      ],
      "name": "setApprovalForAll",
      "outputs": [],
      "payable": false,
      "stateMutability": "nonpayable",
      "type": "function"
    },
    {
      "constant": true,
      "inputs": [],
      "name": "II",
      "outputs": [
        {
          "name": "",
          "type": "bytes32"
        }
      ],
      "payable": false,
      "stateMutability": "view",
      "type": "function"
    },
    {
      "constant": false,
      "inputs": [
        {
          "name": "_from",
          "type": "address"
        },
        {
          "name": "_to",
          "type": "address"
        },
        {
          "name": "_tokenId",
          "type": "uint256"
        },
        {
          "name": "_data",
          "type": "bytes"
        }
      ],
      "name": "safeTransferFrom",
      "outputs": [],
      "payable": false,
      "stateMutability": "nonpayable",
      "type": "function"
    },
    {
      "constant": true,
      "inputs": [
        {
          "name": "_tokenId",
          "type": "uint256"
        }
      ],
      "name": "tokenURI",
      "outputs": [
        {
          "name": "",
          "type": "string"
        }
      ],
      "payable": false,
      "stateMutability": "view",
      "type": "function"
    },
    {
      "constant": true,
      "inputs": [
        {
          "name": "_owner",
          "type": "address"
        },
        {
          "name": "_operator",
          "type": "address"
        }
      ],
      "name": "isApprovedForAll",
      "outputs": [
        {
          "name": "",
          "type": "bool"
        }
      ],
      "payable": false,
      "stateMutability": "view",
      "type": "function"
    },
    {
      "inputs": [],
      "payable": false,
      "stateMutability": "nonpayable",
      "type": "constructor"
    },
    {
      "anonymous": false,
      "inputs": [
        {
          "indexed": true,
          "name": "_from",
          "type": "address"
        },
        {
          "indexed": true,
          "name": "_to",
          "type": "address"
        },
        {
          "indexed": false,
          "name": "_tokenId",
          "type": "uint256"
        }
      ],
      "name": "Transfer",
      "type": "event"
    },
    {
      "anonymous": false,
      "inputs": [
        {
          "indexed": true,
          "name": "_owner",
          "type": "address"
        },
        {
          "indexed": true,
          "name": "_approved",
          "type": "address"
        },
        {
          "indexed": false,
          "name": "_tokenId",
          "type": "uint256"
        }
      ],
      "name": "Approval",
      "type": "event"
    },
    {
      "anonymous": false,
      "inputs": [
        {
          "indexed": true,
          "name": "_owner",
          "type": "address"
        },
        {
          "indexed": true,
          "name": "_operator",
          "type": "address"
        },
        {
          "indexed": false,
          "name": "_approved",
          "type": "bool"
        }
      ],
      "name": "ApprovalForAll",
      "type": "event"
    },
    {
      "constant": false,
      "inputs": [
        {
          "name": "_to",
          "type": "address"
        },
        {
          "name": "_uri",
          "type": "string"
        },
        {
          "name": "expTime",
          "type": "uint256"
        }
      ],
      "name": "IssueCertificateOld",
      "outputs": [],
      "payable": false,
      "stateMutability": "nonpayable",
      "type": "function"
    },
    {
      "constant": false,
      "inputs": [
        {
          "name": "_to",
          "type": "address"
        },
        {
          "name": "_uri",
          "type": "string"
        },
        {
          "name": "expirationTime",
          "type": "uint256"
        },
        {
          "name": "signAddr",
          "type": "address[]"
        },
        {
          "name": "names",
          "type": "bytes1[100][]"
        }
      ],
      "name": "IssueCertificate",
      "outputs": [],
      "payable": false,
      "stateMutability": "nonpayable",
      "type": "function"
    },
    {
      "constant": false,
      "inputs": [
        {
          "name": "tokenId",
          "type": "uint256"
        },
        {
          "name": "signature",
          "type": "string"
        }
      ],
      "name": "signCertificate",
      "outputs": [],
      "payable": false,
      "stateMutability": "nonpayable",
      "type": "function"
    },
    {
      "constant": true,
      "inputs": [
        {
          "name": "tokenId",
          "type": "uint256"
        }
      ],
      "name": "getNumberOfSigners",
      "outputs": [
        {
          "name": "numberOfSigners",
          "type": "uint256"
        }
      ],
      "payable": false,
      "stateMutability": "view",
      "type": "function"
    },
    {
      "constant": true,
      "inputs": [
        {
          "name": "tokenId",
          "type": "uint256"
        },
        {
          "name": "index",
          "type": "uint256"
        }
      ],
      "name": "getSignature",
      "outputs": [
        {
          "name": "signature",
          "type": "string"
        }
      ],
      "payable": false,
      "stateMutability": "view",
      "type": "function"
    },
    {
      "constant": true,
      "inputs": [
        {
          "name": "tokenId",
          "type": "uint256"
        }
      ],
      "name": "GetIssuerAddressByTokenId",
      "outputs": [
        {
          "name": "Issuer",
          "type": "address"
        }
      ],
      "payable": false,
      "stateMutability": "view",
      "type": "function"
    },
    {
      "constant": true,
      "inputs": [
        {
          "name": "tokenId",
          "type": "uint256"
        }
      ],
      "name": "GetExpirationTimeByTokenId",
      "outputs": [
        {
          "name": "expirationTime",
          "type": "uint256"
        }
      ],
      "payable": false,
      "stateMutability": "view",
      "type": "function"
    },
    {
      "constant": false,
      "inputs": [],
      "name": "lockAccount",
      "outputs": [],
      "payable": false,
      "stateMutability": "nonpayable",
      "type": "function"
    },
    {
      "constant": true,
      "inputs": [],
      "name": "isAccountLocked",
      "outputs": [
        {
          "name": "locked",
          "type": "bool"
        }
      ],
      "payable": false,
      "stateMutability": "view",
      "type": "function"
    },
    {
      "constant": false,
      "inputs": [
        {
          "name": "tokenId",
          "type": "uint256"
        }
      ],
      "name": "deleteCertificate",
      "outputs": [],
      "payable": false,
      "stateMutability": "nonpayable",
      "type": "function"
    },
    {
      "constant": true,
      "inputs": [
        {
          "name": "tokenId",
          "type": "uint256"
        }
      ],
      "name": "isCertificateValid",
      "outputs": [
        {
          "name": "valid",
          "type": "uint256"
        }
      ],
      "payable": false,
      "stateMutability": "view",
      "type": "function"
    }
  ],
  "bytecode": "0x60c0604052600560808190527f50656f6e7900000000000000000000000000000000000000000000000000000060a09081526200004091600b919062000195565b506040805180820190915260038082527f504e59000000000000000000000000000000000000000000000000000000000060209092019182526200008791600c9162000195565b507f5656000000000000000000000000000000000000000000000000000000000000600d557f4949000000000000000000000000000000000000000000000000000000000000600e556001600f8190556000601081905560118290556012556013556064601455348015620000fb57600080fd5b50604080518082018252600581527f50656f6e7900000000000000000000000000000000000000000000000000000060208083019182528351808501909452600384527f504e590000000000000000000000000000000000000000000000000000000000908401528151919291620001769160049162000195565b5080516200018c90600590602084019062000195565b5050506200023a565b828054600181600116156101000203166002900490600052602060002090601f016020900481019282601f10620001d857805160ff191683800117855562000208565b8280016001018555821562000208579182015b8281111562000208578251825591602001919060010190620001eb565b50620002169291506200021a565b5090565b6200023791905b8082111562000216576000815560010162000221565b90565b611ca7806200024a6000396000f3006080604052600436106101745763ffffffff7c010000000000000000000000000000000000000000000000000000000060003504166306e1976c811461017957806306fdde0314610190578063081812fc1461021a578063095ea7b31461024e57806318160ddd1461027257806323b872dd146102995780632b1f80ed146102c35780632f745c59146102db5780633f02186e146102ff57806342842e0e146103175780634f558e79146103415780634f6ccce71461036d5780636235bce9146103855780636352211e1461039a57806366bc74b5146103b25780636a12874f1461041057806370a082311461042b57806375d1611e1461044c578063815ea88a14610464578063883eeb6e1461057b57806395d89b4114610593578063a22cb465146105a8578063a5ce413a146105ce578063aa1ebbad146105e6578063b88d4fde146105fb578063bcaaf8cc1461066a578063c87b56dd146106d3578063e577bc37146106eb578063e985e9c514610700575b600080fd5b34801561018557600080fd5b5061018e610727565b005b34801561019c57600080fd5b506101a5610772565b6040805160208082528351818301528351919283929083019185019080838360005b838110156101df5781810151838201526020016101c7565b50505050905090810190601f16801561020c5780820380516001836020036101000a031916815260200191505b509250505060405180910390f35b34801561022657600080fd5b50610232600435610809565b60408051600160a060020a039092168252519081900360200190f35b34801561025a57600080fd5b5061018e600160a060020a0360043516602435610824565b34801561027e57600080fd5b5061028761091f565b60408051918252519081900360200190f35b3480156102a557600080fd5b5061018e600160a060020a0360043581169060243516604435610925565b3480156102cf57600080fd5b506102326004356109d4565b3480156102e757600080fd5b50610287600160a060020a03600435166024356109ef565b34801561030b57600080fd5b50610287600435610a3c565b34801561032357600080fd5b5061018e600160a060020a0360043581169060243516604435610a4e565b34801561034d57600080fd5b50610359600435610a86565b604080519115158252519081900360200190f35b34801561037957600080fd5b50610287600435610aa9565b34801561039157600080fd5b50610287610ade565b3480156103a657600080fd5b50610232600435610ae4565b3480156103be57600080fd5b5060408051602060046024803582810135601f810185900485028601850190965285855261018e958335953695604494919390910191908190840183828082843750949750610b0e9650505050505050565b34801561041c57600080fd5b506101a5600435602435610b6a565b34801561043757600080fd5b50610287600160a060020a0360043516610c2b565b34801561045857600080fd5b50610287600435610c5e565b34801561047057600080fd5b5060408051602060046024803582810135601f810185900485028601850190965285855261018e958335600160a060020a031695369560449491939091019190819084018382808284375050604080516020808901358a01803580830284810184018652818552999c8b359c909b909a9501985092965081019450909250829190850190849080828437505060408051873589018035602081810284018101909452808352979a999883019791965082019450925082915060009085015b8282101561056b5760408051610c80818101909252908084028701906064908390839080828437505050918352505060019091019060200161052e565b50939650610c7095505050505050565b34801561058757600080fd5b5061018e600435610f1f565b34801561059f57600080fd5b506101a5610f52565b3480156105b457600080fd5b5061018e600160a060020a03600435166024351515610fb3565b3480156105da57600080fd5b50610287600435611042565b3480156105f257600080fd5b50610287611073565b34801561060757600080fd5b50604080516020601f60643560048181013592830184900484028501840190955281845261018e94600160a060020a0381358116956024803590921695604435953695608494019181908401838280828437509497506110799650505050505050565b34801561067657600080fd5b5060408051602060046024803582810135601f810185900485028601850190965285855261018e958335600160a060020a031695369560449491939091019190819084018382808284375094975050933594506110b89350505050565b3480156106df57600080fd5b506101a56004356112e3565b3480156106f757600080fd5b50610359611398565b34801561070c57600080fd5b50610359600160a060020a03600435811690602435166113b7565b600160a060020a03331660009081526019602052604090205460ff161561074d57600080fd5b600160a060020a0333166000908152601960205260409020805460ff19166001179055565b60048054604080516020601f60026000196101006001881615020190951694909404938401819004810282018101909252828152606093909290918301828280156107fe5780601f106107d3576101008083540402835291602001916107fe565b820191906000526020600020905b8154815290600101906020018083116107e157829003601f168201915b505050505090505b90565b600090815260016020526040902054600160a060020a031690565b600061082f82610ae4565b9050600160a060020a03838116908216141561084a57600080fd5b80600160a060020a031633600160a060020a0316148061086f575061086f81336113b7565b151561087a57600080fd5b600061088583610809565b600160a060020a03161415806108a35750600160a060020a03831615155b1561091a57600082815260016020908152604091829020805473ffffffffffffffffffffffffffffffffffffffff1916600160a060020a03878116918217909255835186815293519093918516927f8c5be1e5ebec7d5bd14f71427d1e84f3dd0314c0f7b2291e5b200ac8c7c3b925928290030190a35b505050565b60085490565b8061093033826113e5565b151561093b57600080fd5b600160a060020a038416151561095057600080fd5b600160a060020a038316151561096557600080fd5b61096f8483611444565b61097984836114f2565b610983838361162b565b82600160a060020a031684600160a060020a03167fddf252ad1be2c89b69c2b068fc378daa952ba7f163c4a11628f55a4df523b3ef846040518082815260200191505060405180910390a350505050565b600090815260176020526040902054600160a060020a031690565b60006109fa83610c2b565b8210610a0557600080fd5b600160a060020a0383166000908152600660205260409020805483908110610a2957fe5b9060005260206000200154905092915050565b60009081526018602052604090205490565b80610a5933826113e5565b1515610a6457600080fd5b610a808484846020604051908101604052806000815250611079565b50505050565b600081815260208190526040902054600160a060020a0316801515905b50919050565b6000610ab361091f565b8210610abe57600080fd5b6008805483908110610acc57fe5b90600052602060002001549050919050565b600d5481565b600081815260208190526040812054600160a060020a0316801515610b0857600080fd5b92915050565b600160a060020a03331660009081526019602052604090205460ff1615610b3457600080fd5b6000828152601a60209081526040808320600160a060020a03331684528252909120825161091a92600590920191840190611a2e565b6000828152601b6020526040902080546060919083908110610b8857fe5b6000918252602091829020600560069092020101805460408051601f6002600019610100600187161502019094169390930492830185900485028101850190915281815292830182828015610c1e5780601f10610bf357610100808354040283529160200191610c1e565b820191906000526020600020905b815481529060010190602001808311610c0157829003601f168201915b5050505050905092915050565b6000600160a060020a0382161515610c4257600080fd5b50600160a060020a031660009081526002602052604090205490565b6000908152601b602052604090205490565b600160a060020a03331660009081526019602052604081205481908190819060ff1615610c9c57600080fd5b60138054600181019091559350610cb38985611674565b610cbd84896116c3565b600160a060020a0333166000818152601660209081526040808320805460018101825590845282842081018990558884526015835281842081905560178352818420805473ffffffffffffffffffffffffffffffffffffffff19169095179094556018909152812089905590935091505b8551821015610f14576060604051908101604052808684815181101515610d5157fe5b9060200190602002015181526020018784815181101515610d6e57fe5b6020908102909101810151600160a060020a03168252604080518083018252600080825293830152878352601a90915281208851909190899086908110610db157fe5b6020908102909101810151600160a060020a031682528101919091526040016000208151610de29082906064611aac565b5060208281015160048301805473ffffffffffffffffffffffffffffffffffffffff1916600160a060020a0390921691909117905560408301518051610e2e9260058501920190611a2e565b5050506000848152601a602052604081208751909190889085908110610e5057fe5b6020908102909101810151600160a060020a031682528181019290925260409081016000908120878252601b845291812080546001810180835591835293909120919350918391600690910201610ea981836064611b5b565b50600482810154908201805473ffffffffffffffffffffffffffffffffffffffff1916600160a060020a0390921691909117905560058083018054610f04928401919060026000196001831615610100020190911604611b8e565b505060019093019250610d2e9050565b505050505050505050565b600160a060020a03331660009081526019602052604090205460ff1615610f4557600080fd5b610f4f33826114f2565b50565b60058054604080516020601f60026000196101006001881615020190951694909404938401819004810282018101909252828152606093909290918301828280156107fe5780601f106107d3576101008083540402835291602001916107fe565b33600160a060020a031682600160a060020a031614151515610fd457600080fd5b600160a060020a03338116600081815260036020908152604080832094871680845294825291829020805486151560ff199091168117909155825190815291517f17307eab39ab6107e8899845ad3d59bd9653f200f220920489ca2b5937696c319281900390910190a35050565b600081815260186020526040812054428110801561105f57508015155b1561106957610aa3565b6012549150610aa3565b600e5481565b8161108433826113e5565b151561108f57600080fd5b61109a858585610925565b6110a6858585856116f6565b15156110b157600080fd5b5050505050565b600160a060020a03331660009081526019602052604090205460ff16156110de57600080fd5b30600160a060020a031663815ea88a848484600060405190808252806020026020018201604052801561111b578160200160208202803883390190505b50604080516000808252602082019092529061114d565b61113a611c03565b8152602001906001900390816111325790505b506040518663ffffffff167c01000000000000000000000000000000000000000000000000000000000281526004018086600160a060020a0316600160a060020a03168152602001806020018581526020018060200180602001848103845288818151815260200191508051906020019080838360005b838110156111dc5781810151838201526020016111c4565b50505050905090810190601f1680156112095780820380516001836020036101000a031916815260200191505b508481038352865181528651602091820191808901910280838360005b8381101561123e578181015183820152602001611226565b505050509050018481038252858181518152602001915080516000925b8184101561129e57602080850284010151610c8080838360005b8381101561128d578181015183820152602001611275565b50505050905001926001019261125b565b9250505098505050505050505050600060405180830381600087803b1580156112c657600080fd5b505af11580156112da573d6000803e3d6000fd5b50505050505050565b60606112ee82610a86565b15156112f957600080fd5b6000828152600a602090815260409182902080548351601f60026000196101006001861615020190931692909204918201849004840281018401909452808452909183018282801561138c5780601f106113615761010080835404028352916020019161138c565b820191906000526020600020905b81548152906001019060200180831161136f57829003601f168201915b50505050509050919050565b600160a060020a03331660009081526019602052604090205460ff1690565b600160a060020a03918216600090815260036020908152604080832093909416825291909152205460ff1690565b6000806113f183610ae4565b905080600160a060020a031684600160a060020a0316148061142c575083600160a060020a031661142184610809565b600160a060020a0316145b8061143c575061143c81856113b7565b949350505050565b81600160a060020a031661145782610ae4565b600160a060020a03161461146a57600080fd5b600081815260016020526040902054600160a060020a0316156114ee576000818152600160209081526040808320805473ffffffffffffffffffffffffffffffffffffffff1916905580518481529051600160a060020a038616927f8c5be1e5ebec7d5bd14f71427d1e84f3dd0314c0f7b2291e5b200ac8c7c3b925928290030190a35b5050565b6000806000611501858561187f565b600084815260076020908152604080832054600160a060020a038916845260069092529091205490935061153c90600163ffffffff61191416565b600160a060020a03861660009081526006602052604090208054919350908390811061156457fe5b90600052602060002001549050806006600087600160a060020a0316600160a060020a03168152602001908152602001600020848154811015156115a457fe5b6000918252602080832090910192909255600160a060020a03871681526006909152604081208054849081106115d657fe5b6000918252602080832090910192909255600160a060020a038716815260069091526040902080549061160d906000198301611c23565b50600093845260076020526040808520859055908452909220555050565b60006116378383611926565b50600160a060020a039091166000908152600660209081526040808320805460018101825590845282842081018590559383526007909152902055565b61167e82826119b5565b600880546000838152600960205260408120829055600182018355919091527ff3f7a9fe364faab93b216da50a3214154f22a0a2b415b23a84c8169e8b636ee3015550565b6116cc82610a86565b15156116d757600080fd5b6000828152600a60209081526040909120825161091a92840190611a2e565b60008061170b85600160a060020a0316611a19565b151561171a5760019150611876565b84600160a060020a031663f0b9e5ba8786866040518463ffffffff167c01000000000000000000000000000000000000000000000000000000000281526004018084600160a060020a0316600160a060020a0316815260200183815260200180602001828103825283818151815260200191508051906020019080838360005b838110156117b257818101518382015260200161179a565b50505050905090810190601f1680156117df5780820380516001836020036101000a031916815260200191505b50945050505050602060405180830381600087803b15801561180057600080fd5b505af1158015611814573d6000803e3d6000fd5b505050506040513d602081101561182a57600080fd5b50517fffffffff0000000000000000000000000000000000000000000000000000000081167ff0b9e5ba0000000000000000000000000000000000000000000000000000000014925090505b50949350505050565b81600160a060020a031661189282610ae4565b600160a060020a0316146118a557600080fd5b600160a060020a0382166000908152600260205260409020546118cf90600163ffffffff61191416565b600160a060020a039092166000908152600260209081526040808320949094559181529081905220805473ffffffffffffffffffffffffffffffffffffffff19169055565b60008282111561192057fe5b50900390565b600081815260208190526040902054600160a060020a03161561194857600080fd5b600081815260208181526040808320805473ffffffffffffffffffffffffffffffffffffffff1916600160a060020a03871690811790915583526002909152902054611995906001611a21565b600160a060020a0390921660009081526002602052604090209190915550565b600160a060020a03821615156119ca57600080fd5b6119d4828261162b565b604080518281529051600160a060020a038416916000917fddf252ad1be2c89b69c2b068fc378daa952ba7f163c4a11628f55a4df523b3ef9181900360200190a35050565b6000903b1190565b81810182811015610b0857fe5b828054600181600116156101000203166002900490600052602060002090601f016020900481019282601f10611a6f57805160ff1916838001178555611a9c565b82800160010185558215611a9c579182015b82811115611a9c578251825591602001919060010190611a81565b50611aa8929150611c43565b5090565b600483019183908215611b4f5791602002820160005b83821115611b2057835183826101000a81548160ff02191690837f0100000000000000000000000000000000000000000000000000000000000000900402179055509260200192600101602081600001049283019260010302611ac2565b8015611b4d5782816101000a81549060ff0219169055600101602081600001049283019260010302611b20565b505b50611aa8929150611c5d565b600483019183908215611b4f5791601f016020900482015b82811115611b4f578254825591600101919060010190611b73565b828054600181600116156101000203166002900490600052602060002090601f016020900481019282601f10611bc75780548555611a9c565b82800160010185558215611a9c57600052602060002091601f016020900482015b82811115611a9c578254825591600101919060010190611be8565b610c80604051908101604052806064906020820280388339509192915050565b81548183558181111561091a5760008381526020902061091a9181019083015b61080691905b80821115611aa85760008155600101611c49565b61080691905b80821115611aa857805460ff19168155600101611c635600a165627a7a723058207aa7a9d83126f4e8b15cda07b7ab29fcec04b25479c6baeadfb9c556c51d3da90029",
  "source": "pragma solidity ^0.4.18;\r\nimport \"zeppelin-solidity/contracts/token/ERC721/ERC721Token.sol\";\r\n// References: https://github.com/OpenZeppelin/openzeppelin-solidity/blob/v1.8.0/contracts/token/ERC721/ERC721Token.sol\r\n\r\ncontract PeonyCertificate is ERC721Token (\"Peony\", \"PNY\") {\r\n    // These two are included in the open lib\r\n    string internal name_ = \"Peony\";\r\n    string internal symbol_ = \"PNY\";\r\n    // string internal VV = \"VVV\";\r\n    // string internal IV = \"III\";\r\n    bytes32 public VV = \"VV\";\r\n    bytes32 public II = \"II\";\r\n    uint256 yes = 1;\r\n    uint256 no = 0;\r\n    uint256 valid = 1;\r\n    uint256 invalid=0;\r\n    uint256 erc721TokenId = 1; // default tokenId for helping people to create unique id\r\n    //Decalre max length of the names to accept\r\n    uint256 MAX_LENGTH = 100;\r\n    // our additional attirbutes for Issuer\r\n    // Mapping from token ID to index of the issuer's issued tokens list\r\n    mapping(uint256 => uint256) internal issuedTokensIndex;\r\n\r\n    // Mapping from issuer to list of issued token IDs\r\n    mapping (address => uint256[]) internal issuedTokens;\r\n\r\n    // Mapping from token ID to issuer\r\n    mapping (uint256 => address) internal tokenIssuer;\r\n\r\n    // Mapping from token ID to Expiration time\r\n    mapping (uint256 => uint256) internal certificateExpirationTime;\r\n\r\n    // Mapping from token ID to Valid Cert\r\n    // mapping (uint256 => uint256) internal certificateIsValid;\r\n\r\n    // Mapping from address to lockdown  (for account getting hacked, \r\n    // so owner will have ability to 'lock down' the account)\r\n    mapping (address => bool) internal lockedDownAddresses;\r\n\r\n    struct Signer{\r\n        byte[100] name;\r\n        address singerAddr;\r\n        string signature;\r\n    }\r\n\r\n    // Mapping tokenId to Signer Struct \r\n    mapping (uint256 => mapping(address => Signer)) TokenSigners;\r\n\r\n    // Mapping to a list of signers\r\n    mapping (uint256 => Signer[]) TokenSignersList;\r\n\r\n    // constructor\r\n    function PeonyCertificate() public { \r\n\r\n    }\r\n\r\n    \r\n    modifier onlyUnlocked() {\r\n        require(!lockedDownAddresses[msg.sender]);\r\n        _;\r\n    }\r\n\r\n    // OverLoaded function for regression\r\n    function IssueCertificateOld(address _to, string _uri, uint256 expTime) onlyUnlocked public {\r\n        this.IssueCertificate(_to, _uri, expTime, new address[](0), new byte[100][](0));\r\n    }\r\n\r\n    // Function to issue certificate to a receiver\r\n    // _uri  : The JSON string data that we will put in certificate\r\n    function IssueCertificate(address _to, string _uri, uint256 expirationTime, address[] signAddr, byte[100][] names) onlyUnlocked public {\r\n        uint256 newTokenId = erc721TokenId++;\r\n        super._mint(_to, newTokenId);\r\n        super._setTokenURI(newTokenId, _uri);\r\n        // Update issuer data and Addition Peony Features\r\n        uint256 issuerLength = issuedTokens[msg.sender].length;\r\n        issuedTokens[msg.sender].push(newTokenId);\r\n        issuedTokensIndex[newTokenId] = issuerLength;\r\n        tokenIssuer[newTokenId] = msg.sender;\r\n        // Add expireationTime stamp\r\n        certificateExpirationTime[newTokenId] = expirationTime;\r\n        // Add signers to the token list\r\n        for(uint256 i = 0 ; i < signAddr.length ; i++){\r\n            TokenSigners[newTokenId][signAddr[i]] = Signer(names[i], signAddr[i], \"\");\r\n            Signer storage t = TokenSigners[newTokenId][signAddr[i]];\r\n            TokenSignersList[newTokenId].push(t); //share the referneces so can share the same updates actions\r\n        }\r\n    }\r\n\r\n    //For signer to find a particular tokenId and sign the certificate\r\n    function signCertificate(uint256 tokenId, string signature) onlyUnlocked public {\r\n        //signatures[tokenId][msg.sender] = signature;\r\n        TokenSigners[tokenId][msg.sender].signature = signature;\r\n    }\r\n\r\n    //Get total number of signer\r\n    function getNumberOfSigners(uint256 tokenId) public view returns(uint256 numberOfSigners) {\r\n        return TokenSignersList[tokenId].length;\r\n    }\r\n\r\n    //Get signature from certificate signers list\r\n    function getSignature(uint256 tokenId, uint256 index) public view returns(string signature){\r\n        return TokenSignersList[tokenId][index].signature;\r\n    }\r\n\r\n    // Get Issuer address from provided tokentId\r\n    // 0: meaning the tokenId doesn't have mapped Issuer Address (more likely there is no such token)\r\n    function GetIssuerAddressByTokenId(uint256 tokenId) public view returns(address Issuer) {\r\n        return tokenIssuer[tokenId];\r\n    }\r\n\r\n    // Get Issuer address from provided tokentId\r\n    // 0: meaning the tokenId doesn't have mapped Issuer Address (more likely there is no such token)\r\n    function GetExpirationTimeByTokenId(uint256 tokenId) public view returns(uint256 expirationTime) {\r\n        return certificateExpirationTime[tokenId];\r\n    }\r\n\r\n    // Emergency kill button for issuer\r\n    // When user's private key is stolen, so user can lock the account so it won't be able to issue any more certificates\r\n    function lockAccount() onlyUnlocked public {\r\n        lockedDownAddresses[msg.sender] = true;\r\n    }\r\n\r\n    // Helper view function to check if the account is locked\r\n    function isAccountLocked() public view returns(bool locked){\r\n        return lockedDownAddresses[msg.sender];\r\n    }\r\n\r\n    // Function to remove token from owner  for allowing users to remove unwanted certificates\r\n    function deleteCertificate(uint256 tokenId) onlyUnlocked public{\r\n        removeTokenFrom(msg.sender, tokenId);\r\n    }\r\n\r\n    // Function to check is a certificate is valid, now only check time\r\n    function isCertificateValid(uint256 tokenId) public view returns(uint256 valid) {        \r\n        uint256 expirationTime = certificateExpirationTime[tokenId];        \r\n        if (now > expirationTime && expirationTime != 0) {\r\n            return valid;\r\n        } else {\r\n            return invalid;\r\n        }        \r\n    }\r\n     \r\n}\r\n",
  "sourcePath": "C:\\workspace\\truffleProjects\\Peony_Assignment\\contracts\\PeonyCertificate.sol",
  "compiler": {
    "name": "solc",
    "version": "0.4.23+commit.124ca40d.Emscripten.clang"
  },
  "schemaVersion": "2.0.0",
  "updatedAt": "2018-05-29T07:07:29.658Z"
}