{
  "contractName": "PeonyCertificate",
  "abi": [
    {
      "constant": true,
      "inputs": [],
      "name": "name",
      "outputs": [
        {
          "name": "",
          "type": "string"
        }
      ],
      "payable": false,
      "stateMutability": "view",
      "type": "function"
    },
    {
      "constant": true,
      "inputs": [
        {
          "name": "_tokenId",
          "type": "uint256"
        }
      ],
      "name": "getApproved",
      "outputs": [
        {
          "name": "",
          "type": "address"
        }
      ],
      "payable": false,
      "stateMutability": "view",
      "type": "function"
    },
    {
      "constant": false,
      "inputs": [
        {
          "name": "_to",
          "type": "address"
        },
        {
          "name": "_tokenId",
          "type": "uint256"
        }
      ],
      "name": "approve",
      "outputs": [],
      "payable": false,
      "stateMutability": "nonpayable",
      "type": "function"
    },
    {
      "constant": true,
      "inputs": [],
      "name": "totalSupply",
      "outputs": [
        {
          "name": "",
          "type": "uint256"
        }
      ],
      "payable": false,
      "stateMutability": "view",
      "type": "function"
    },
    {
      "constant": false,
      "inputs": [
        {
          "name": "_from",
          "type": "address"
        },
        {
          "name": "_to",
          "type": "address"
        },
        {
          "name": "_tokenId",
          "type": "uint256"
        }
      ],
      "name": "transferFrom",
      "outputs": [],
      "payable": false,
      "stateMutability": "nonpayable",
      "type": "function"
    },
    {
      "constant": true,
      "inputs": [
        {
          "name": "_owner",
          "type": "address"
        },
        {
          "name": "_index",
          "type": "uint256"
        }
      ],
      "name": "tokenOfOwnerByIndex",
      "outputs": [
        {
          "name": "",
          "type": "uint256"
        }
      ],
      "payable": false,
      "stateMutability": "view",
      "type": "function"
    },
    {
      "constant": false,
      "inputs": [
        {
          "name": "_from",
          "type": "address"
        },
        {
          "name": "_to",
          "type": "address"
        },
        {
          "name": "_tokenId",
          "type": "uint256"
        }
      ],
      "name": "safeTransferFrom",
      "outputs": [],
      "payable": false,
      "stateMutability": "nonpayable",
      "type": "function"
    },
    {
      "constant": true,
      "inputs": [
        {
          "name": "_tokenId",
          "type": "uint256"
        }
      ],
      "name": "exists",
      "outputs": [
        {
          "name": "",
          "type": "bool"
        }
      ],
      "payable": false,
      "stateMutability": "view",
      "type": "function"
    },
    {
      "constant": true,
      "inputs": [
        {
          "name": "_index",
          "type": "uint256"
        }
      ],
      "name": "tokenByIndex",
      "outputs": [
        {
          "name": "",
          "type": "uint256"
        }
      ],
      "payable": false,
      "stateMutability": "view",
      "type": "function"
    },
    {
      "constant": true,
      "inputs": [
        {
          "name": "_tokenId",
          "type": "uint256"
        }
      ],
      "name": "ownerOf",
      "outputs": [
        {
          "name": "",
          "type": "address"
        }
      ],
      "payable": false,
      "stateMutability": "view",
      "type": "function"
    },
    {
      "constant": true,
      "inputs": [
        {
          "name": "_owner",
          "type": "address"
        }
      ],
      "name": "balanceOf",
      "outputs": [
        {
          "name": "",
          "type": "uint256"
        }
      ],
      "payable": false,
      "stateMutability": "view",
      "type": "function"
    },
    {
      "constant": true,
      "inputs": [],
      "name": "symbol",
      "outputs": [
        {
          "name": "",
          "type": "string"
        }
      ],
      "payable": false,
      "stateMutability": "view",
      "type": "function"
    },
    {
      "constant": false,
      "inputs": [
        {
          "name": "_to",
          "type": "address"
        },
        {
          "name": "_approved",
          "type": "bool"
        }
      ],
      "name": "setApprovalForAll",
      "outputs": [],
      "payable": false,
      "stateMutability": "nonpayable",
      "type": "function"
    },
    {
      "constant": false,
      "inputs": [
        {
          "name": "_from",
          "type": "address"
        },
        {
          "name": "_to",
          "type": "address"
        },
        {
          "name": "_tokenId",
          "type": "uint256"
        },
        {
          "name": "_data",
          "type": "bytes"
        }
      ],
      "name": "safeTransferFrom",
      "outputs": [],
      "payable": false,
      "stateMutability": "nonpayable",
      "type": "function"
    },
    {
      "constant": true,
      "inputs": [
        {
          "name": "_tokenId",
          "type": "uint256"
        }
      ],
      "name": "tokenURI",
      "outputs": [
        {
          "name": "",
          "type": "string"
        }
      ],
      "payable": false,
      "stateMutability": "view",
      "type": "function"
    },
    {
      "constant": true,
      "inputs": [
        {
          "name": "_owner",
          "type": "address"
        },
        {
          "name": "_operator",
          "type": "address"
        }
      ],
      "name": "isApprovedForAll",
      "outputs": [
        {
          "name": "",
          "type": "bool"
        }
      ],
      "payable": false,
      "stateMutability": "view",
      "type": "function"
    },
    {
      "inputs": [],
      "payable": false,
      "stateMutability": "nonpayable",
      "type": "constructor"
    },
    {
      "anonymous": false,
      "inputs": [
        {
          "indexed": true,
          "name": "_from",
          "type": "address"
        },
        {
          "indexed": true,
          "name": "_to",
          "type": "address"
        },
        {
          "indexed": false,
          "name": "_tokenId",
          "type": "uint256"
        }
      ],
      "name": "Transfer",
      "type": "event"
    },
    {
      "anonymous": false,
      "inputs": [
        {
          "indexed": true,
          "name": "_owner",
          "type": "address"
        },
        {
          "indexed": true,
          "name": "_approved",
          "type": "address"
        },
        {
          "indexed": false,
          "name": "_tokenId",
          "type": "uint256"
        }
      ],
      "name": "Approval",
      "type": "event"
    },
    {
      "anonymous": false,
      "inputs": [
        {
          "indexed": true,
          "name": "_owner",
          "type": "address"
        },
        {
          "indexed": true,
          "name": "_operator",
          "type": "address"
        },
        {
          "indexed": false,
          "name": "_approved",
          "type": "bool"
        }
      ],
      "name": "ApprovalForAll",
      "type": "event"
    },
    {
      "constant": false,
      "inputs": [
        {
          "name": "_to",
          "type": "address"
        },
        {
          "name": "_uri",
          "type": "string"
        },
        {
          "name": "expTime",
          "type": "uint256"
        }
      ],
      "name": "IssueCertificateOld",
      "outputs": [],
      "payable": false,
      "stateMutability": "nonpayable",
      "type": "function"
    },
    {
      "constant": false,
      "inputs": [
        {
          "name": "_to",
          "type": "address"
        },
        {
          "name": "_uri",
          "type": "string"
        },
        {
          "name": "expirationTime",
          "type": "uint256"
        },
        {
          "name": "signAddr",
          "type": "address[]"
        },
        {
          "name": "names",
          "type": "string"
        },
        {
          "name": "revokable",
          "type": "bool"
        }
      ],
      "name": "IssueCertificate",
      "outputs": [],
      "payable": false,
      "stateMutability": "nonpayable",
      "type": "function"
    },
    {
      "constant": true,
      "inputs": [
        {
          "name": "_issuer",
          "type": "address"
        }
      ],
      "name": "getTotalIssuedTokens",
      "outputs": [
        {
          "name": "total",
          "type": "uint256"
        }
      ],
      "payable": false,
      "stateMutability": "view",
      "type": "function"
    },
    {
      "constant": true,
      "inputs": [
        {
          "name": "_owner",
          "type": "address"
        },
        {
          "name": "_index",
          "type": "uint256"
        }
      ],
      "name": "tokenOfIssuerByIndex",
      "outputs": [
        {
          "name": "tokenId",
          "type": "uint256"
        }
      ],
      "payable": false,
      "stateMutability": "view",
      "type": "function"
    },
    {
      "constant": false,
      "inputs": [
        {
          "name": "tokenId",
          "type": "uint256"
        },
        {
          "name": "signature",
          "type": "string"
        },
        {
          "name": "dateSigned",
          "type": "uint256"
        }
      ],
      "name": "signCertificate",
      "outputs": [],
      "payable": false,
      "stateMutability": "nonpayable",
      "type": "function"
    },
    {
      "constant": true,
      "inputs": [
        {
          "name": "tokenId",
          "type": "uint256"
        }
      ],
      "name": "getNumberOfSigners",
      "outputs": [
        {
          "name": "numberOfSigners",
          "type": "uint256"
        }
      ],
      "payable": false,
      "stateMutability": "view",
      "type": "function"
    },
    {
      "constant": true,
      "inputs": [
        {
          "name": "tokenId",
          "type": "uint256"
        },
        {
          "name": "index",
          "type": "uint256"
        }
      ],
      "name": "getSignature",
      "outputs": [
        {
          "name": "signature",
          "type": "string"
        }
      ],
      "payable": false,
      "stateMutability": "view",
      "type": "function"
    },
    {
      "constant": true,
      "inputs": [
        {
          "name": "tokenId",
          "type": "uint256"
        },
        {
          "name": "index",
          "type": "uint256"
        }
      ],
      "name": "getSigner",
      "outputs": [
        {
          "name": "name",
          "type": "string"
        },
        {
          "name": "signerAddress",
          "type": "address"
        },
        {
          "name": "signature",
          "type": "string"
        },
        {
          "name": "dateSigned",
          "type": "uint256"
        }
      ],
      "payable": false,
      "stateMutability": "view",
      "type": "function"
    },
    {
      "constant": true,
      "inputs": [
        {
          "name": "tokenId",
          "type": "uint256"
        }
      ],
      "name": "GetIssuerAddressByTokenId",
      "outputs": [
        {
          "name": "Issuer",
          "type": "address"
        }
      ],
      "payable": false,
      "stateMutability": "view",
      "type": "function"
    },
    {
      "constant": true,
      "inputs": [
        {
          "name": "tokenId",
          "type": "uint256"
        }
      ],
      "name": "GetExpirationTimeByTokenId",
      "outputs": [
        {
          "name": "expirationTime",
          "type": "uint256"
        }
      ],
      "payable": false,
      "stateMutability": "view",
      "type": "function"
    },
    {
      "constant": false,
      "inputs": [],
      "name": "lockAccount",
      "outputs": [],
      "payable": false,
      "stateMutability": "nonpayable",
      "type": "function"
    },
    {
      "constant": true,
      "inputs": [],
      "name": "isAccountLocked",
      "outputs": [
        {
          "name": "locked",
          "type": "bool"
        }
      ],
      "payable": false,
      "stateMutability": "view",
      "type": "function"
    },
    {
      "constant": false,
      "inputs": [
        {
          "name": "tokenId",
          "type": "uint256"
        }
      ],
      "name": "deleteCertificate",
      "outputs": [],
      "payable": false,
      "stateMutability": "nonpayable",
      "type": "function"
    },
    {
      "constant": false,
      "inputs": [
        {
          "name": "tokenId",
          "type": "uint256"
        }
      ],
      "name": "revokeCertificate",
      "outputs": [],
      "payable": false,
      "stateMutability": "nonpayable",
      "type": "function"
    },
    {
      "constant": true,
      "inputs": [
        {
          "name": "tokenId",
          "type": "uint256"
        }
      ],
      "name": "isCertificateRevokedByIssuer",
      "outputs": [
        {
          "name": "revoked",
          "type": "bool"
        }
      ],
      "payable": false,
      "stateMutability": "view",
      "type": "function"
    },
    {
      "constant": true,
      "inputs": [
        {
          "name": "tokenId",
          "type": "uint256"
        }
      ],
      "name": "isCertificateRevokable",
      "outputs": [
        {
          "name": "revokable",
          "type": "bool"
        }
      ],
      "payable": false,
      "stateMutability": "view",
      "type": "function"
    },
    {
      "constant": true,
      "inputs": [
        {
          "name": "tokenId",
          "type": "uint256"
        }
      ],
      "name": "isCertificateValid",
      "outputs": [
        {
          "name": "valid",
          "type": "bool"
        }
      ],
      "payable": false,
      "stateMutability": "view",
      "type": "function"
    }
  ],
  "bytecode": "0x60c0604052600560808190527f50656f6e7900000000000000000000000000000000000000000000000000000060a09081526200004091600b919062000134565b506040805180820190915260038082527f504e59000000000000000000000000000000000000000000000000000000000060209092019182526200008791600c9162000134565b506001600d553480156200009a57600080fd5b50604080518082018252600581527f50656f6e7900000000000000000000000000000000000000000000000000000060208083019182528351808501909452600384527f504e590000000000000000000000000000000000000000000000000000000000908401528151919291620001159160049162000134565b5080516200012b90600590602084019062000134565b505050620001d9565b828054600181600116156101000203166002900490600052602060002090601f016020900481019282601f106200017757805160ff1916838001178555620001a7565b82800160010185558215620001a7579182015b82811115620001a75782518255916020019190600101906200018a565b50620001b5929150620001b9565b5090565b620001d691905b80821115620001b55760008155600101620001c0565b90565b6121ec80620001e96000396000f3006080604052600436106101a05763ffffffff7c010000000000000000000000000000000000000000000000000000000060003504166304638bb081146101a557806306d6f26d1461029057806306e1976c146102c657806306f5497e146102db57806306fdde03146102f3578063081812fc1461037d578063095ea7b3146103b157806317deaeb7146103d557806318160ddd1461040157806323b872dd146104165780632b1f80ed146104405780632f745c59146104585780633d98bf611461047c5780633f02186e146104dc57806342842e0e146104f457806343a233561461051e5780634f558e79146105365780634f6ccce71461054e5780636352211e146105665780636a12874f1461057e57806370a082311461059957806375d1611e146105ba578063883eeb6e146105d257806395d89b41146105ea578063a22cb465146105ff578063a5ce413a14610625578063b88d4fde1461063d578063bcaaf8cc146106ac578063c0a816ac14610715578063c27800151461082e578063c87b56dd1461084f578063e577bc3714610867578063e985e9c51461087c575b600080fd5b3480156101b157600080fd5b5060408051602060046024803582810135601f810185900485028601850190965285855261028e958335600160a060020a031695369560449491939091019190819084018382808284375050604080516020808901358a01803580830284810184018652818552999c8b359c909b909a95019850929650810194509092508291908501908490808284375050604080516020601f89358b018035918201839004830284018301909452808352979a9998810197919650918201945092508291508401838280828437509497505050509135151592506108a3915050565b005b34801561029c57600080fd5b506102b4600160a060020a0360043516602435610b7d565b60408051918252519081900360200190f35b3480156102d257600080fd5b5061028e610bca565b3480156102e757600080fd5b5061028e600435610c15565b3480156102ff57600080fd5b50610308610c9d565b6040805160208082528351818301528351919283929083019185019080838360005b8381101561034257818101518382015260200161032a565b50505050905090810190601f16801561036f5780820380516001836020036101000a031916815260200191505b509250505060405180910390f35b34801561038957600080fd5b50610395600435610d34565b60408051600160a060020a039092168252519081900360200190f35b3480156103bd57600080fd5b5061028e600160a060020a0360043516602435610d4f565b3480156103e157600080fd5b506103ed600435610e4a565b604080519115158252519081900360200190f35b34801561040d57600080fd5b506102b4610e5f565b34801561042257600080fd5b5061028e600160a060020a0360043581169060243516604435610e65565b34801561044c57600080fd5b50610395600435610f14565b34801561046457600080fd5b506102b4600160a060020a0360043516602435610f2f565b34801561048857600080fd5b5060408051602060046024803582810135601f810185900485028601850190965285855261028e9583359536956044949193909101919081908401838280828437509497505093359450610f699350505050565b3480156104e857600080fd5b506102b4600435611091565b34801561050057600080fd5b5061028e600160a060020a03600435811690602435166044356110a3565b34801561052a57600080fd5b506103ed6004356110db565b34801561054257600080fd5b506103ed6004356110f0565b34801561055a57600080fd5b506102b460043561110d565b34801561057257600080fd5b50610395600435611142565b34801561058a57600080fd5b5061030860043560243561116c565b3480156105a557600080fd5b506102b4600160a060020a036004351661122f565b3480156105c657600080fd5b506102b4600435611262565b3480156105de57600080fd5b5061028e600435611274565b3480156105f657600080fd5b506103086112a7565b34801561060b57600080fd5b5061028e600160a060020a03600435166024351515611308565b34801561063157600080fd5b506103ed600435611397565b34801561064957600080fd5b50604080516020601f60643560048181013592830184900484028501840190955281845261028e94600160a060020a0381358116956024803590921695604435953695608494019181908401838280828437509497506113ad9650505050505050565b3480156106b857600080fd5b5060408051602060046024803582810135601f810185900485028601850190965285855261028e958335600160a060020a031695369560449491939091019190819084018382808284375094975050933594506113ec9350505050565b34801561072157600080fd5b506107306004356024356115a3565b604051808060200185600160a060020a0316600160a060020a0316815260200180602001848152602001838103835287818151815260200191508051906020019080838360005b8381101561078f578181015183820152602001610777565b50505050905090810190601f1680156107bc5780820380516001836020036101000a031916815260200191505b50838103825285518152855160209182019187019080838360005b838110156107ef5781810151838201526020016107d7565b50505050905090810190601f16801561081c5780820380516001836020036101000a031916815260200191505b50965050505050505060405180910390f35b34801561083a57600080fd5b506102b4600160a060020a0360043516611751565b34801561085b57600080fd5b5061030860043561176c565b34801561087357600080fd5b506103ed611821565b34801561088857600080fd5b506103ed600160a060020a0360043581169060243516611840565b6000806108ae6120bf565b6108b66120bf565b600160a060020a03331660009081526015602052604081205460ff16156108dc57600080fd5b600d80546001810190915594506108f38b8661186e565b6108fd858b6118bd565b6000858152601460209081526040808320805460ff19169055600160a060020a033316808452600f835281842080546001818101835591865284862081018b90558a8652600e855283862081905560118552838620805473ffffffffffffffffffffffffffffffffffffffff191684179055918552601090935292205491955061098d919063ffffffff6118f016565b600160a060020a03331660009081526010602090815260408083209390935587825260129052208990556109c0876118fd565b9250610a006040805190810160405280600181526020017f3b000000000000000000000000000000000000000000000000000000000000008152506118fd565b9150600090505b8751811015610b5557600085815260176020526040908190208151608081019092529080610a43610a3e878763ffffffff61192316565b61193d565b81526020018a84815181101515610a5657fe5b6020908102909101810151600160a060020a0316825260408051808301825260008082528484019190915292018290528354600181018086559483529181902083518051600490940290910192610ab092849201906120d6565b5060208281015160018301805473ffffffffffffffffffffffffffffffffffffffff1916600160a060020a0390921691909117905560408301518051610afc92600285019201906120d6565b506060919091015160039091015550600085815260166020526040812089518392908b9084908110610b2a57fe5b6020908102909101810151600160a060020a0316825281019190915260400160002055600101610a07565b505050600091825250601360205260409020805460ff19169115159190911790555050505050565b6000610b8883611751565b8210610b9357600080fd5b600160a060020a0383166000908152600f60205260409020805483908110610bb757fe5b9060005260206000200154905092915050565b600160a060020a03331660009081526015602052604090205460ff1615610bf057600080fd5b600160a060020a0333166000908152601560205260409020805460ff19166001179055565b600160a060020a03331660009081526015602052604090205460ff1615610c3b57600080fd5b60008181526013602052604090205460ff161515600114610c5b57600080fd5b60008181526011602052604090205433600160a060020a03908116911614610c8257600080fd5b6000908152601460205260409020805460ff19166001179055565b60048054604080516020601f6002600019610100600188161502019095169490940493840181900481028201810190925282815260609390929091830182828015610d295780601f10610cfe57610100808354040283529160200191610d29565b820191906000526020600020905b815481529060010190602001808311610d0c57829003601f168201915b505050505090505b90565b600090815260016020526040902054600160a060020a031690565b6000610d5a82611142565b9050600160a060020a038381169082161415610d7557600080fd5b80600160a060020a031633600160a060020a03161480610d9a5750610d9a8133611840565b1515610da557600080fd5b6000610db083610d34565b600160a060020a0316141580610dce5750600160a060020a03831615155b15610e4557600082815260016020908152604091829020805473ffffffffffffffffffffffffffffffffffffffff1916600160a060020a03878116918217909255835186815293519093918516927f8c5be1e5ebec7d5bd14f71427d1e84f3dd0314c0f7b2291e5b200ac8c7c3b925928290030190a35b505050565b60009081526014602052604090205460ff1690565b60085490565b80610e703382611990565b1515610e7b57600080fd5b600160a060020a0384161515610e9057600080fd5b600160a060020a0383161515610ea557600080fd5b610eaf84836119ef565b610eb98483611a9d565b610ec38383611bd6565b82600160a060020a031684600160a060020a03167fddf252ad1be2c89b69c2b068fc378daa952ba7f163c4a11628f55a4df523b3ef846040518082815260200191505060405180910390a350505050565b600090815260116020526040902054600160a060020a031690565b6000610f3a8361122f565b8210610f4557600080fd5b600160a060020a0383166000908152600660205260409020805483908110610bb757fe5b600160a060020a03331660009081526015602052604081205460ff1615610f8f57600080fd5b506000838152601660209081526040808320600160a060020a03331684528252808320548684526017909252909120548110610fca57600080fd5b60008481526017602052604090208054600160a060020a033316919083908110610ff057fe5b6000918252602090912060016004909202010154600160a060020a03161461101757600080fd5b600084815260176020526040902080548491908390811061103457fe5b906000526020600020906004020160020190805190602001906110589291906120d6565b50600084815260176020526040902080548391908390811061107657fe5b90600052602060002090600402016003018190555050505050565b60009081526012602052604090205490565b806110ae3382611990565b15156110b957600080fd5b6110d584848460206040519081016040528060008152506113ad565b50505050565b60009081526013602052604090205460ff1690565b600090815260208190526040902054600160a060020a0316151590565b6000611117610e5f565b821061112257600080fd5b600880548390811061113057fe5b90600052602060002001549050919050565b600081815260208190526040812054600160a060020a031680151561116657600080fd5b92915050565b60008281526017602052604090208054606091908390811061118a57fe5b600091825260209182902060026004909202018101805460408051601f6000196101006001861615020190931694909404918201859004850284018501905280835291929091908301828280156112225780601f106111f757610100808354040283529160200191611222565b820191906000526020600020905b81548152906001019060200180831161120557829003601f168201915b5050505050905092915050565b6000600160a060020a038216151561124657600080fd5b50600160a060020a031660009081526002602052604090205490565b60009081526017602052604090205490565b600160a060020a03331660009081526015602052604090205460ff161561129a57600080fd5b6112a43382611a9d565b50565b60058054604080516020601f6002600019610100600188161502019095169490940493840181900481028201810190925282815260609390929091830182828015610d295780601f10610cfe57610100808354040283529160200191610d29565b33600160a060020a031682600160a060020a03161415151561132957600080fd5b600160a060020a03338116600081815260036020908152604080832094871680845294825291829020805486151560ff199091168117909155825190815291517f17307eab39ab6107e8899845ad3d59bd9653f200f220920489ca2b5937696c319281900390910190a35050565b60009081526014602052604090205460ff161590565b816113b83382611990565b15156113c357600080fd5b6113ce858585610e65565b6113da85858585611c1f565b15156113e557600080fd5b5050505050565b600160a060020a03331660009081526015602052604090205460ff161561141257600080fd5b30600160a060020a03166304638bb0848484600060405190808252806020026020018201604052801561144f578160200160208202803883390190505b5060006040518663ffffffff167c01000000000000000000000000000000000000000000000000000000000281526004018086600160a060020a0316600160a060020a0316815260200180602001858152602001806020018060200185151515158152602001848103845288818151815260200191508051906020019080838360005b838110156114ea5781810151838201526020016114d2565b50505050905090810190601f1680156115175780820380516001836020036101000a031916815260200191505b508481038352865181528651602091820191808901910280838360005b8381101561154c578181015183820152602001611534565b5050505090500184810382526000815260200160200198505050505050505050600060405180830381600087803b15801561158657600080fd5b505af115801561159a573d6000803e3d6000fd5b50505050505050565b60606000606060006115b3612154565b60008781526017602052604090208054879081106115cd57fe5b600091825260209182902060408051600493909302909101805460026001821615610100026000190190911604601f8101859004909402830160a090810190925260808301848152929390928492909184918401828280156116705780601f1061164557610100808354040283529160200191611670565b820191906000526020600020905b81548152906001019060200180831161165357829003601f168201915b5050509183525050600182810154600160a060020a0316602080840191909152600280850180546040805161010096831615969096026000190190911692909204601f8101849004840285018401835280855291909401939183018282801561171a5780601f106116ef5761010080835404028352916020019161171a565b820191906000526020600020905b8154815290600101906020018083116116fd57829003601f168201915b5050509183525050600391909101546020918201528151908201516040830151606090930151919a90995091975095509350505050565b600160a060020a031660009081526010602052604090205490565b6060611777826110f0565b151561178257600080fd5b6000828152600a602090815260409182902080548351601f6002600019610100600186161502019093169290920491820184900484028101840190945280845290918301828280156118155780601f106117ea57610100808354040283529160200191611815565b820191906000526020600020905b8154815290600101906020018083116117f857829003601f168201915b50505050509050919050565b600160a060020a03331660009081526015602052604090205460ff1690565b600160a060020a03918216600090815260036020908152604080832093909416825291909152205460ff1690565b6118788282611da8565b600880546000838152600960205260408120829055600182018355919091527ff3f7a9fe364faab93b216da50a3214154f22a0a2b415b23a84c8169e8b636ee3015550565b6118c6826110f0565b15156118d157600080fd5b6000828152600a602090815260409091208251610e45928401906120d6565b8181018281101561116657fe5b6119056120bf565b50604080518082019091528151815260209182019181019190915290565b61192b6120bf565b611936838383611e0c565b5092915050565b606080600083600001516040519080825280601f01601f191660200182016040528015611974578160200160208202803883390190505b5091506020820190506119368185602001518660000151611e7d565b60008061199c83611142565b905080600160a060020a031684600160a060020a031614806119d7575083600160a060020a03166119cc84610d34565b600160a060020a0316145b806119e757506119e78185611840565b949350505050565b81600160a060020a0316611a0282611142565b600160a060020a031614611a1557600080fd5b600081815260016020526040902054600160a060020a031615611a99576000818152600160209081526040808320805473ffffffffffffffffffffffffffffffffffffffff1916905580518481529051600160a060020a038616927f8c5be1e5ebec7d5bd14f71427d1e84f3dd0314c0f7b2291e5b200ac8c7c3b925928290030190a35b5050565b6000806000611aac8585611ec1565b600084815260076020908152604080832054600160a060020a0389168452600690925290912054909350611ae790600163ffffffff611f5616565b600160a060020a038616600090815260066020526040902080549193509083908110611b0f57fe5b90600052602060002001549050806006600087600160a060020a0316600160a060020a0316815260200190815260200160002084815481101515611b4f57fe5b6000918252602080832090910192909255600160a060020a0387168152600690915260408120805484908110611b8157fe5b6000918252602080832090910192909255600160a060020a0387168152600690915260409020805490611bb8906000198301612186565b50600093845260076020526040808520859055908452909220555050565b6000611be28383611f68565b50600160a060020a039091166000908152600660209081526040808320805460018101825590845282842081018590559383526007909152902055565b600080611c3485600160a060020a0316611ff7565b1515611c435760019150611d9f565b84600160a060020a031663f0b9e5ba8786866040518463ffffffff167c01000000000000000000000000000000000000000000000000000000000281526004018084600160a060020a0316600160a060020a0316815260200183815260200180602001828103825283818151815260200191508051906020019080838360005b83811015611cdb578181015183820152602001611cc3565b50505050905090810190601f168015611d085780820380516001836020036101000a031916815260200191505b50945050505050602060405180830381600087803b158015611d2957600080fd5b505af1158015611d3d573d6000803e3d6000fd5b505050506040513d6020811015611d5357600080fd5b50517fffffffff0000000000000000000000000000000000000000000000000000000081167ff0b9e5ba0000000000000000000000000000000000000000000000000000000014925090505b50949350505050565b600160a060020a0382161515611dbd57600080fd5b611dc78282611bd6565b604080518281529051600160a060020a038416916000917fddf252ad1be2c89b69c2b068fc378daa952ba7f163c4a11628f55a4df523b3ef9181900360200190a35050565b611e146120bf565b6000611e328560000151866020015186600001518760200151611fff565b60208087018051918601919091528051820385528651905191925001811415611e5e5760008552611e74565b8351835186519101900385528351810160208601525b50909392505050565b60005b60208210611ea2578251845260209384019390920191601f1990910190611e80565b50905182516020929092036101000a6000190180199091169116179052565b81600160a060020a0316611ed482611142565b600160a060020a031614611ee757600080fd5b600160a060020a038216600090815260026020526040902054611f1190600163ffffffff611f5616565b600160a060020a039092166000908152600260209081526040808320949094559181529081905220805473ffffffffffffffffffffffffffffffffffffffff19169055565b600082821115611f6257fe5b50900390565b600081815260208190526040902054600160a060020a031615611f8a57600080fd5b600081815260208181526040808320805473ffffffffffffffffffffffffffffffffffffffff1916600160a060020a03871690811790915583526002909152902054611fd79060016118f0565b600160a060020a0390921660009081526002602052604090209190915550565b6000903b1190565b600083818080808080808c8b116120a95760208b116120725760018b60200360080260020a03196001029550858a511694508a8d8d010393508588511692505b82851461206a57838810612057578c8c0198506120af565b878060010198505085885116925061203f565b8798506120af565b8a8a209150600096505b8a8d0387116120a9575089872081811415612099578798506120af565b600197880197969096019561207c565b8c8c0198505b5050505050505050949350505050565b604080518082019091526000808252602082015290565b828054600181600116156101000203166002900490600052602060002090601f016020900481019282601f1061211757805160ff1916838001178555612144565b82800160010185558215612144579182015b82811115612144578251825591602001919060010190612129565b506121509291506121a6565b5090565b608060405190810160405280606081526020016000600160a060020a0316815260200160608152602001600081525090565b815481835581811115610e4557600083815260209020610e459181019083015b610d3191905b8082111561215057600081556001016121ac5600a165627a7a72305820b3cf9b21ebe951f3ec015a460ef0f125e395f7a9ad1f6ffaee21dbbb1f15544a0029",
  "source": "pragma solidity ^0.4.18;\nimport \"zeppelin-solidity/contracts/token/ERC721/ERC721Token.sol\";\nimport \"zeppelin-solidity/contracts/math/SafeMath.sol\";\n\nimport \"./lib/strings.sol\";\n// References: https://github.com/OpenZeppelin/openzeppelin-solidity/blob/v1.8.0/contracts/token/ERC721/ERC721Token.sol\n\ncontract PeonyCertificate is ERC721Token (\"Peony\", \"PNY\") {\n    using strings for *;\n    using SafeMath for uint256;\n\n    // These two are included in the open lib\n    string internal name_ = \"Peony\";\n    string internal symbol_ = \"PNY\";\n\n    uint256 erc721TokenId = 1; // default tokenId for helping people to create unique id\n\n    // our additional attirbutes for Issuer\n    // Mapping from token ID to index of the issuer's issued tokens list\n    mapping(uint256 => uint256) internal issuedTokensIndex;\n\n    // Mapping from issuer to list of issued token IDs\n    mapping (address => uint256[]) internal issuedTokens;\n\n    // Mapping for issuer to know how many certificates it has issued\n    mapping (address => uint256) internal issuedTokensCount;\n\n    // Mapping from token ID to issuer\n    mapping (uint256 => address) internal tokenIssuer;\n\n    // Mapping from token ID to Expiration time\n    mapping (uint256 => uint256) internal certificateExpirationTime;\n\n    // Mapping for indicating if the token is revokable or not.\n    mapping (uint256 => bool) internal revokableCertificates;\n\n    // Mapping for indicating if the token is revoked or not.\n    mapping (uint256 => bool) internal isCertificateRevoked;\n\n    // Mapping from token ID to Valid Cert\n    // mapping (uint256 => uint256) internal certificateIsValid;\n\n    // Mapping from address to lockdown  (for account getting hacked, \n    // so owner will have ability to 'lock down' the account)\n    mapping (address => bool) internal lockedDownAddresses;\n\n    struct Signer{\n        string name;\n        address signerAddr;\n        string signature;\n        uint256 dateSigned;\n    }\n\n    // Mapping tokenId to Signer index in TokenSignersList \n    mapping (uint256 => mapping(address => uint256)) TokenSignersIndex;\n\n    // Mapping to a list of signers\n    mapping (uint256 => Signer[]) TokenSignersList;\n\n    // constructor\n    function PeonyCertificate() public { \n        //Do some initialization\n    }\n\n    \n    modifier onlyUnlocked() {\n        require(!lockedDownAddresses[msg.sender]);\n        _;\n    }\n\n    // OverLoaded function for regression\n    function IssueCertificateOld(address _to, string _uri, uint256 expTime) onlyUnlocked public {\n        this.IssueCertificate(_to, _uri, expTime, new address[](0), \"\", false);\n    }\n\n    // Function to issue certificate to a receiver\n    // _to   : The recipient's wallet address\n    // _uri  : The JSON string data that we will put in certificate\n    // expirationTime  : The time of expiration\n    // signAddr : The list of addresses to be the signer of the certificate (those signer will need to get on and sign it individually later on)\n    // names  : The names of the signers (is ';' delimetered string)\n    function IssueCertificate(address _to, string _uri, uint256 expirationTime, address[] signAddr, string names, bool revokable) \n    onlyUnlocked public {\n        //New generated token Id\n        uint256 newTokenId = erc721TokenId++;\n        super._mint(_to, newTokenId);\n        super._setTokenURI(newTokenId, _uri);\n        // Update issuer data and Addition Peony Features\n        isCertificateRevoked[newTokenId] = false; //new certificate always has not yet been revoked\n        uint256 issuerLength = issuedTokens[msg.sender].length;\n        issuedTokens[msg.sender].push(newTokenId);\n        issuedTokensIndex[newTokenId] = issuerLength;\n        tokenIssuer[newTokenId] = msg.sender;\n        issuedTokensCount[msg.sender] = issuedTokensCount[msg.sender].add(1);\n        // Add expireationTime stamp\n        certificateExpirationTime[newTokenId] = expirationTime;\n        // Get names ready to be split by strings.sol\n        strings.slice memory sliceName = names.toSlice();\n        strings.slice memory delim = \";\".toSlice();\n        // Add signers to the token list\n        for(uint256 i = 0 ; i < signAddr.length ; i++){\n            //share the referneces so can share the same updates actions\n            TokenSignersList[newTokenId].push(Signer(sliceName.split(delim).toString(), signAddr[i], \"\", 0));\n            TokenSignersIndex[newTokenId][signAddr[i]] = i; \n        }\n        //populate map for revokable list\n        revokableCertificates[newTokenId] = revokable;\n    }\n\n    //IssuedTokens getter by tokenId\n    function getTotalIssuedTokens(address _issuer) public view returns(uint256 total){\n        return issuedTokensCount[_issuer];\n    }\n\n    //Get IssuedTokensByIssuerIndex\n    function tokenOfIssuerByIndex(address _owner, uint _index) public view returns(uint256 tokenId){\n        require(_index < getTotalIssuedTokens(_owner));\n        return issuedTokens[_owner][_index];\n    }\n\n    //For signer to find a particular tokenId and sign the certificate\n    function signCertificate(uint256 tokenId, string signature, uint dateSigned) onlyUnlocked public {\n        //signatures[tokenId][msg.sender] = signature;\n        uint256 index = TokenSignersIndex[tokenId][msg.sender];\n        require(index < TokenSignersList[tokenId].length);\n        require(TokenSignersList[tokenId][index].signerAddr == msg.sender);\n        TokenSignersList[tokenId][index].signature = signature;\n        TokenSignersList[tokenId][index].dateSigned = dateSigned;\n    }\n\n    //Get total number of signer\n    function getNumberOfSigners(uint256 tokenId) public view returns(uint256 numberOfSigners) {\n        return TokenSignersList[tokenId].length;\n    }\n\n    //Get signature from certificate signers list\n    function getSignature(uint256 tokenId, uint256 index) public view returns(string signature){\n        return TokenSignersList[tokenId][index].signature;\n    }\n\n    //Get Signer Object from certificate signers list by index\n    function getSigner(uint256 tokenId, uint256 index) public view \n    returns(string name, address signerAddress, string signature, uint256 dateSigned){\n        Signer memory signer = TokenSignersList[tokenId][index];\n        return (signer.name, signer.signerAddr, signer.signature, signer.dateSigned);\n    }\n\n\n    // Get Issuer address from provided tokentId\n    // 0: meaning the tokenId doesn't have mapped Issuer Address (more likely there is no such token)\n    function GetIssuerAddressByTokenId(uint256 tokenId) public view returns(address Issuer) {\n        return tokenIssuer[tokenId];\n    }\n\n    // Get Issuer address from provided tokentId\n    // 0: meaning the tokenId doesn't have mapped Issuer Address (more likely there is no such token)\n    function GetExpirationTimeByTokenId(uint256 tokenId) public view returns(uint256 expirationTime) {\n        return certificateExpirationTime[tokenId];\n    }\n\n    // Emergency kill button for issuer\n    // When user's private key is stolen, so user can lock the account so it won't be able to issue any more certificates\n    function lockAccount() onlyUnlocked public {\n        lockedDownAddresses[msg.sender] = true;\n    }\n\n    // Helper view function to check if the account is locked\n    function isAccountLocked() public view returns(bool locked){\n        return lockedDownAddresses[msg.sender];\n    }\n\n    // Function to remove token from owner  for allowing users to remove unwanted certificates\n    function deleteCertificate(uint256 tokenId) onlyUnlocked public{\n        super.removeTokenFrom(msg.sender, tokenId);\n    }\n     \n    // Function to revoke the certificate\n    // Has to be the issuer and the certificate is revokable.\n    function revokeCertificate(uint256 tokenId) onlyUnlocked public{\n        require(revokableCertificates[tokenId] == true);\n        require(tokenIssuer[tokenId] == msg.sender);\n        //Set revoked flag to true\n        isCertificateRevoked[tokenId] = true;\n    }\n\n    // Check if the certificate has been revoked or not\n    function isCertificateRevokedByIssuer(uint256 tokenId) public view returns(bool revoked){\n        return isCertificateRevoked[tokenId];\n    }\n     // Check if the certificate has been revoked or not\n    function isCertificateRevokable(uint256 tokenId) public view returns(bool revokable){\n        return revokableCertificates[tokenId];\n    }\n    //Helper function to return if certificate is valid\n    //Currently only verify if the certificate is revoke or not.\n    function isCertificateValid(uint256 tokenId) public view returns(bool valid){\n        bool isValid = true;\n        isValid = isValid && !isCertificateRevoked[tokenId];  //check if the certificate is revoked or not\n        return isValid;\n    }\n}\n",
  "sourcePath": "/Users/Danny/Desktop/cs359b-peony-blockchain-certificate/contracts/PeonyCertificate.sol",
  "compiler": {
    "name": "solc",
    "version": "0.4.23+commit.124ca40d.Emscripten.clang"
  },
  "schemaVersion": "2.0.0",
  "updatedAt": "2018-06-06T08:47:07.340Z"
}