{
  "contractName": "PeonyCertificate",
  "abi": [
    {
      "constant": true,
      "inputs": [],
      "name": "name",
      "outputs": [
        {
          "name": "",
          "type": "string"
        }
      ],
      "payable": false,
      "stateMutability": "view",
      "type": "function"
    },
    {
      "constant": true,
      "inputs": [
        {
          "name": "_tokenId",
          "type": "uint256"
        }
      ],
      "name": "getApproved",
      "outputs": [
        {
          "name": "",
          "type": "address"
        }
      ],
      "payable": false,
      "stateMutability": "view",
      "type": "function"
    },
    {
      "constant": false,
      "inputs": [
        {
          "name": "_to",
          "type": "address"
        },
        {
          "name": "_tokenId",
          "type": "uint256"
        }
      ],
      "name": "approve",
      "outputs": [],
      "payable": false,
      "stateMutability": "nonpayable",
      "type": "function"
    },
    {
      "constant": true,
      "inputs": [],
      "name": "totalSupply",
      "outputs": [
        {
          "name": "",
          "type": "uint256"
        }
      ],
      "payable": false,
      "stateMutability": "view",
      "type": "function"
    },
    {
      "constant": false,
      "inputs": [
        {
          "name": "_from",
          "type": "address"
        },
        {
          "name": "_to",
          "type": "address"
        },
        {
          "name": "_tokenId",
          "type": "uint256"
        }
      ],
      "name": "transferFrom",
      "outputs": [],
      "payable": false,
      "stateMutability": "nonpayable",
      "type": "function"
    },
    {
      "constant": true,
      "inputs": [
        {
          "name": "_owner",
          "type": "address"
        },
        {
          "name": "_index",
          "type": "uint256"
        }
      ],
      "name": "tokenOfOwnerByIndex",
      "outputs": [
        {
          "name": "",
          "type": "uint256"
        }
      ],
      "payable": false,
      "stateMutability": "view",
      "type": "function"
    },
    {
      "constant": false,
      "inputs": [
        {
          "name": "_from",
          "type": "address"
        },
        {
          "name": "_to",
          "type": "address"
        },
        {
          "name": "_tokenId",
          "type": "uint256"
        }
      ],
      "name": "safeTransferFrom",
      "outputs": [],
      "payable": false,
      "stateMutability": "nonpayable",
      "type": "function"
    },
    {
      "constant": true,
      "inputs": [
        {
          "name": "_tokenId",
          "type": "uint256"
        }
      ],
      "name": "exists",
      "outputs": [
        {
          "name": "",
          "type": "bool"
        }
      ],
      "payable": false,
      "stateMutability": "view",
      "type": "function"
    },
    {
      "constant": true,
      "inputs": [
        {
          "name": "_index",
          "type": "uint256"
        }
      ],
      "name": "tokenByIndex",
      "outputs": [
        {
          "name": "",
          "type": "uint256"
        }
      ],
      "payable": false,
      "stateMutability": "view",
      "type": "function"
    },
    {
      "constant": true,
      "inputs": [
        {
          "name": "_tokenId",
          "type": "uint256"
        }
      ],
      "name": "ownerOf",
      "outputs": [
        {
          "name": "",
          "type": "address"
        }
      ],
      "payable": false,
      "stateMutability": "view",
      "type": "function"
    },
    {
      "constant": true,
      "inputs": [
        {
          "name": "_owner",
          "type": "address"
        }
      ],
      "name": "balanceOf",
      "outputs": [
        {
          "name": "",
          "type": "uint256"
        }
      ],
      "payable": false,
      "stateMutability": "view",
      "type": "function"
    },
    {
      "constant": true,
      "inputs": [],
      "name": "symbol",
      "outputs": [
        {
          "name": "",
          "type": "string"
        }
      ],
      "payable": false,
      "stateMutability": "view",
      "type": "function"
    },
    {
      "constant": false,
      "inputs": [
        {
          "name": "_to",
          "type": "address"
        },
        {
          "name": "_approved",
          "type": "bool"
        }
      ],
      "name": "setApprovalForAll",
      "outputs": [],
      "payable": false,
      "stateMutability": "nonpayable",
      "type": "function"
    },
    {
      "constant": false,
      "inputs": [
        {
          "name": "_from",
          "type": "address"
        },
        {
          "name": "_to",
          "type": "address"
        },
        {
          "name": "_tokenId",
          "type": "uint256"
        },
        {
          "name": "_data",
          "type": "bytes"
        }
      ],
      "name": "safeTransferFrom",
      "outputs": [],
      "payable": false,
      "stateMutability": "nonpayable",
      "type": "function"
    },
    {
      "constant": true,
      "inputs": [
        {
          "name": "_tokenId",
          "type": "uint256"
        }
      ],
      "name": "tokenURI",
      "outputs": [
        {
          "name": "",
          "type": "string"
        }
      ],
      "payable": false,
      "stateMutability": "view",
      "type": "function"
    },
    {
      "constant": true,
      "inputs": [
        {
          "name": "_owner",
          "type": "address"
        },
        {
          "name": "_operator",
          "type": "address"
        }
      ],
      "name": "isApprovedForAll",
      "outputs": [
        {
          "name": "",
          "type": "bool"
        }
      ],
      "payable": false,
      "stateMutability": "view",
      "type": "function"
    },
    {
      "inputs": [],
      "payable": false,
      "stateMutability": "nonpayable",
      "type": "constructor"
    },
    {
      "anonymous": false,
      "inputs": [
        {
          "indexed": true,
          "name": "_from",
          "type": "address"
        },
        {
          "indexed": true,
          "name": "_to",
          "type": "address"
        },
        {
          "indexed": false,
          "name": "_tokenId",
          "type": "uint256"
        }
      ],
      "name": "Transfer",
      "type": "event"
    },
    {
      "anonymous": false,
      "inputs": [
        {
          "indexed": true,
          "name": "_owner",
          "type": "address"
        },
        {
          "indexed": true,
          "name": "_approved",
          "type": "address"
        },
        {
          "indexed": false,
          "name": "_tokenId",
          "type": "uint256"
        }
      ],
      "name": "Approval",
      "type": "event"
    },
    {
      "anonymous": false,
      "inputs": [
        {
          "indexed": true,
          "name": "_owner",
          "type": "address"
        },
        {
          "indexed": true,
          "name": "_operator",
          "type": "address"
        },
        {
          "indexed": false,
          "name": "_approved",
          "type": "bool"
        }
      ],
      "name": "ApprovalForAll",
      "type": "event"
    },
    {
      "constant": false,
      "inputs": [
        {
          "name": "_to",
          "type": "address"
        },
        {
          "name": "_uri",
          "type": "string"
        }
      ],
      "name": "IssueCertificate",
      "outputs": [],
      "payable": false,
      "stateMutability": "nonpayable",
      "type": "function"
    }
  ],
  "bytecode": "0x60c0604052600560808190527f50656f6e7900000000000000000000000000000000000000000000000000000060a09081526200004091600b919062000134565b506040805180820190915260038082527f504e59000000000000000000000000000000000000000000000000000000000060209092019182526200008791600c9162000134565b506001600d553480156200009a57600080fd5b50604080518082018252600581527f50656f6e7900000000000000000000000000000000000000000000000000000060208083019182528351808501909452600384527f504e590000000000000000000000000000000000000000000000000000000000908401528151919291620001159160049162000134565b5080516200012b90600590602084019062000134565b505050620001d9565b828054600181600116156101000203166002900490600052602060002090601f016020900481019282601f106200017757805160ff1916838001178555620001a7565b82800160010185558215620001a7579182015b82811115620001a75782518255916020019190600101906200018a565b50620001b5929150620001b9565b5090565b620001d691905b80821115620001b55760008155600101620001c0565b90565b6111a680620001e96000396000f3006080604052600436106100f05763ffffffff7c010000000000000000000000000000000000000000000000000000000060003504166306fdde0381146100f5578063081812fc1461017f578063095ea7b3146101b357806318160ddd146101d957806323b872dd146102005780632f745c591461022a57806342842e0e1461024e5780634f558e79146102785780634f6ccce7146102a45780636352211e146102bc57806370a08231146102d457806395d89b41146102f5578063a22cb4651461030a578063a8d65f2214610330578063b88d4fde14610397578063c87b56dd14610406578063e985e9c51461041e575b600080fd5b34801561010157600080fd5b5061010a610445565b6040805160208082528351818301528351919283929083019185019080838360005b8381101561014457818101518382015260200161012c565b50505050905090810190601f1680156101715780820380516001836020036101000a031916815260200191505b509250505060405180910390f35b34801561018b57600080fd5b506101976004356104dc565b60408051600160a060020a039092168252519081900360200190f35b3480156101bf57600080fd5b506101d7600160a060020a03600435166024356104f7565b005b3480156101e557600080fd5b506101ee6105f2565b60408051918252519081900360200190f35b34801561020c57600080fd5b506101d7600160a060020a03600435811690602435166044356105f8565b34801561023657600080fd5b506101ee600160a060020a03600435166024356106a7565b34801561025a57600080fd5b506101d7600160a060020a03600435811690602435166044356106f4565b34801561028457600080fd5b5061029060043561072c565b604080519115158252519081900360200190f35b3480156102b057600080fd5b506101ee600435610749565b3480156102c857600080fd5b5061019760043561077e565b3480156102e057600080fd5b506101ee600160a060020a03600435166107a8565b34801561030157600080fd5b5061010a6107db565b34801561031657600080fd5b506101d7600160a060020a0360043516602435151561083c565b34801561033c57600080fd5b5060408051602060046024803582810135601f81018590048502860185019096528585526101d7958335600160a060020a03169536956044949193909101919081908401838280828437509497506108cb9650505050505050565b3480156103a357600080fd5b50604080516020601f6064356004818101359283018490048402850184019095528184526101d794600160a060020a0381358116956024803590921695604435953695608494019181908401838280828437509497506109539650505050505050565b34801561041257600080fd5b5061010a600435610992565b34801561042a57600080fd5b50610290600160a060020a0360043581169060243516610a47565b60048054604080516020601f60026000196101006001881615020190951694909404938401819004810282018101909252828152606093909290918301828280156104d15780601f106104a6576101008083540402835291602001916104d1565b820191906000526020600020905b8154815290600101906020018083116104b457829003601f168201915b505050505090505b90565b600090815260016020526040902054600160a060020a031690565b60006105028261077e565b9050600160a060020a03838116908216141561051d57600080fd5b80600160a060020a031633600160a060020a0316148061054257506105428133610a47565b151561054d57600080fd5b6000610558836104dc565b600160a060020a03161415806105765750600160a060020a03831615155b156105ed57600082815260016020908152604091829020805473ffffffffffffffffffffffffffffffffffffffff1916600160a060020a03878116918217909255835186815293519093918516927f8c5be1e5ebec7d5bd14f71427d1e84f3dd0314c0f7b2291e5b200ac8c7c3b925928290030190a35b505050565b60085490565b806106033382610a75565b151561060e57600080fd5b600160a060020a038416151561062357600080fd5b600160a060020a038316151561063857600080fd5b6106428483610ad4565b61064c8483610b82565b6106568383610cbb565b82600160a060020a031684600160a060020a03167fddf252ad1be2c89b69c2b068fc378daa952ba7f163c4a11628f55a4df523b3ef846040518082815260200191505060405180910390a350505050565b60006106b2836107a8565b82106106bd57600080fd5b600160a060020a03831660009081526006602052604090208054839081106106e157fe5b9060005260206000200154905092915050565b806106ff3382610a75565b151561070a57600080fd5b6107268484846020604051908101604052806000815250610953565b50505050565b600090815260208190526040902054600160a060020a0316151590565b60006107536105f2565b821061075e57600080fd5b600880548390811061076c57fe5b90600052602060002001549050919050565b600081815260208190526040812054600160a060020a03168015156107a257600080fd5b92915050565b6000600160a060020a03821615156107bf57600080fd5b50600160a060020a031660009081526002602052604090205490565b60058054604080516020601f60026000196101006001881615020190951694909404938401819004810282018101909252828152606093909290918301828280156104d15780601f106104a6576101008083540402835291602001916104d1565b33600160a060020a031682600160a060020a03161415151561085d57600080fd5b600160a060020a03338116600081815260036020908152604080832094871680845294825291829020805486151560ff199091168117909155825190815291517f17307eab39ab6107e8899845ad3d59bd9653f200f220920489ca2b5937696c319281900390910190a35050565b600d80546001810190915560006108e28483610d04565b6108ec8284610d53565b50600160a060020a0333166000818152600f6020908152604080832080546001810182559084528284208101869055948352600e8252808320949094556010905291909120805473ffffffffffffffffffffffffffffffffffffffff191690911790555050565b8161095e3382610a75565b151561096957600080fd5b6109748585856105f8565b61098085858585610d86565b151561098b57600080fd5b5050505050565b606061099d8261072c565b15156109a857600080fd5b6000828152600a602090815260409182902080548351601f600260001961010060018616150201909316929092049182018490048402810184019094528084529091830182828015610a3b5780601f10610a1057610100808354040283529160200191610a3b565b820191906000526020600020905b815481529060010190602001808311610a1e57829003601f168201915b50505050509050919050565b600160a060020a03918216600090815260036020908152604080832093909416825291909152205460ff1690565b600080610a818361077e565b905080600160a060020a031684600160a060020a03161480610abc575083600160a060020a0316610ab1846104dc565b600160a060020a0316145b80610acc5750610acc8185610a47565b949350505050565b81600160a060020a0316610ae78261077e565b600160a060020a031614610afa57600080fd5b600081815260016020526040902054600160a060020a031615610b7e576000818152600160209081526040808320805473ffffffffffffffffffffffffffffffffffffffff1916905580518481529051600160a060020a038616927f8c5be1e5ebec7d5bd14f71427d1e84f3dd0314c0f7b2291e5b200ac8c7c3b925928290030190a35b5050565b6000806000610b918585610f0f565b600084815260076020908152604080832054600160a060020a0389168452600690925290912054909350610bcc90600163ffffffff610fa416565b600160a060020a038616600090815260066020526040902080549193509083908110610bf457fe5b90600052602060002001549050806006600087600160a060020a0316600160a060020a0316815260200190815260200160002084815481101515610c3457fe5b6000918252602080832090910192909255600160a060020a0387168152600690915260408120805484908110610c6657fe5b6000918252602080832090910192909255600160a060020a0387168152600690915260409020805490610c9d9060001983016110be565b50600093845260076020526040808520859055908452909220555050565b6000610cc78383610fb6565b50600160a060020a039091166000908152600660209081526040808320805460018101825590845282842081018590559383526007909152902055565b610d0e8282611045565b600880546000838152600960205260408120829055600182018355919091527ff3f7a9fe364faab93b216da50a3214154f22a0a2b415b23a84c8169e8b636ee3015550565b610d5c8261072c565b1515610d6757600080fd5b6000828152600a6020908152604090912082516105ed928401906110e2565b600080610d9b85600160a060020a03166110a9565b1515610daa5760019150610f06565b84600160a060020a031663f0b9e5ba8786866040518463ffffffff167c01000000000000000000000000000000000000000000000000000000000281526004018084600160a060020a0316600160a060020a0316815260200183815260200180602001828103825283818151815260200191508051906020019080838360005b83811015610e42578181015183820152602001610e2a565b50505050905090810190601f168015610e6f5780820380516001836020036101000a031916815260200191505b50945050505050602060405180830381600087803b158015610e9057600080fd5b505af1158015610ea4573d6000803e3d6000fd5b505050506040513d6020811015610eba57600080fd5b50517fffffffff0000000000000000000000000000000000000000000000000000000081167ff0b9e5ba0000000000000000000000000000000000000000000000000000000014925090505b50949350505050565b81600160a060020a0316610f228261077e565b600160a060020a031614610f3557600080fd5b600160a060020a038216600090815260026020526040902054610f5f90600163ffffffff610fa416565b600160a060020a039092166000908152600260209081526040808320949094559181529081905220805473ffffffffffffffffffffffffffffffffffffffff19169055565b600082821115610fb057fe5b50900390565b600081815260208190526040902054600160a060020a031615610fd857600080fd5b600081815260208181526040808320805473ffffffffffffffffffffffffffffffffffffffff1916600160a060020a038716908117909155835260029091529020546110259060016110b1565b600160a060020a0390921660009081526002602052604090209190915550565b600160a060020a038216151561105a57600080fd5b6110648282610cbb565b604080518281529051600160a060020a038416916000917fddf252ad1be2c89b69c2b068fc378daa952ba7f163c4a11628f55a4df523b3ef9181900360200190a35050565b6000903b1190565b818101828110156107a257fe5b8154818355818111156105ed576000838152602090206105ed918101908301611160565b828054600181600116156101000203166002900490600052602060002090601f016020900481019282601f1061112357805160ff1916838001178555611150565b82800160010185558215611150579182015b82811115611150578251825591602001919060010190611135565b5061115c929150611160565b5090565b6104d991905b8082111561115c57600081556001016111665600a165627a7a72305820a36d9734278557bd3fe2e332978731df2ab01f3895c788489681fe2890e0dddb0029",
  "source": "pragma solidity ^0.4.18;\r\nimport \"zeppelin-solidity/contracts/token/ERC721/ERC721Token.sol\";\r\n// References: https://github.com/OpenZeppelin/openzeppelin-solidity/blob/v1.8.0/contracts/token/ERC721/ERC721Token.sol\r\n\r\ncontract PeonyCertificate is ERC721Token (\"Peony\", \"PNY\") {\r\n    // These two are included in the open lib\r\n    string internal name_ = \"Peony\";\r\n    string internal symbol_ = \"PNY\";\r\n    uint256 tokenId = 1; // default tokenId for helping people to create unique id\r\n\r\n    // our additional attirbutes for Issuer\r\n    // Mapping from token ID to index of the issuer's issued tokens list\r\n    mapping(uint256 => uint256) internal issuedTokensIndex;\r\n\r\n    // Mapping from issuer to list of issued token IDs\r\n    mapping (address => uint256[]) internal issuedTokens;\r\n\r\n    // Mapping from token ID to issuer\r\n    mapping (uint256 => address) internal tokenIssuer;\r\n    \r\n    // constructor\r\n    function PeonyCertificate() public { \r\n\r\n    }\r\n\r\n    // Function to issue certificate to a receiver\r\n    // _uri  : The JSON string data that we will put in certificate\r\n    function IssueCertificate(address _to, string _uri) public {\r\n        uint256 newTokenId = tokenId++;\r\n        super._mint(_to, newTokenId);\r\n        super._setTokenURI(newTokenId, _uri);\r\n        // Update issuer data\r\n        uint256 issuerLength = issuedTokens[msg.sender].length;\r\n        issuedTokens[msg.sender].push(newTokenId);\r\n        issuedTokensIndex[newTokenId] = issuerLength;\r\n        tokenIssuer[newTokenId] = msg.sender;\r\n    }\r\n}\r\n",
  "sourcePath": "C:\\workspace\\truffleProjects\\Peony_Test\\contracts\\PeonyCertificate.sol",
  "compiler": {
    "name": "solc",
    "version": "0.4.23+commit.124ca40d.Emscripten.clang"
  },
  "schemaVersion": "2.0.0",
  "updatedAt": "2018-05-12T10:00:03.702Z"
}