{
  "contractName": "PeonyCertificate",
  "abi": [
    {
      "constant": true,
      "inputs": [],
      "name": "name",
      "outputs": [
        {
          "name": "",
          "type": "string"
        }
      ],
      "payable": false,
      "stateMutability": "view",
      "type": "function"
    },
    {
      "constant": true,
      "inputs": [
        {
          "name": "_tokenId",
          "type": "uint256"
        }
      ],
      "name": "getApproved",
      "outputs": [
        {
          "name": "",
          "type": "address"
        }
      ],
      "payable": false,
      "stateMutability": "view",
      "type": "function"
    },
    {
      "constant": false,
      "inputs": [
        {
          "name": "_to",
          "type": "address"
        },
        {
          "name": "_tokenId",
          "type": "uint256"
        }
      ],
      "name": "approve",
      "outputs": [],
      "payable": false,
      "stateMutability": "nonpayable",
      "type": "function"
    },
    {
      "constant": true,
      "inputs": [],
      "name": "totalSupply",
      "outputs": [
        {
          "name": "",
          "type": "uint256"
        }
      ],
      "payable": false,
      "stateMutability": "view",
      "type": "function"
    },
    {
      "constant": false,
      "inputs": [
        {
          "name": "_from",
          "type": "address"
        },
        {
          "name": "_to",
          "type": "address"
        },
        {
          "name": "_tokenId",
          "type": "uint256"
        }
      ],
      "name": "transferFrom",
      "outputs": [],
      "payable": false,
      "stateMutability": "nonpayable",
      "type": "function"
    },
    {
      "constant": true,
      "inputs": [
        {
          "name": "_owner",
          "type": "address"
        },
        {
          "name": "_index",
          "type": "uint256"
        }
      ],
      "name": "tokenOfOwnerByIndex",
      "outputs": [
        {
          "name": "",
          "type": "uint256"
        }
      ],
      "payable": false,
      "stateMutability": "view",
      "type": "function"
    },
    {
      "constant": false,
      "inputs": [
        {
          "name": "_from",
          "type": "address"
        },
        {
          "name": "_to",
          "type": "address"
        },
        {
          "name": "_tokenId",
          "type": "uint256"
        }
      ],
      "name": "safeTransferFrom",
      "outputs": [],
      "payable": false,
      "stateMutability": "nonpayable",
      "type": "function"
    },
    {
      "constant": true,
      "inputs": [
        {
          "name": "_tokenId",
          "type": "uint256"
        }
      ],
      "name": "exists",
      "outputs": [
        {
          "name": "",
          "type": "bool"
        }
      ],
      "payable": false,
      "stateMutability": "view",
      "type": "function"
    },
    {
      "constant": true,
      "inputs": [
        {
          "name": "_index",
          "type": "uint256"
        }
      ],
      "name": "tokenByIndex",
      "outputs": [
        {
          "name": "",
          "type": "uint256"
        }
      ],
      "payable": false,
      "stateMutability": "view",
      "type": "function"
    },
    {
      "constant": true,
      "inputs": [],
      "name": "VV",
      "outputs": [
        {
          "name": "",
          "type": "bytes32"
        }
      ],
      "payable": false,
      "stateMutability": "view",
      "type": "function"
    },
    {
      "constant": true,
      "inputs": [
        {
          "name": "_tokenId",
          "type": "uint256"
        }
      ],
      "name": "ownerOf",
      "outputs": [
        {
          "name": "",
          "type": "address"
        }
      ],
      "payable": false,
      "stateMutability": "view",
      "type": "function"
    },
    {
      "constant": true,
      "inputs": [
        {
          "name": "_owner",
          "type": "address"
        }
      ],
      "name": "balanceOf",
      "outputs": [
        {
          "name": "",
          "type": "uint256"
        }
      ],
      "payable": false,
      "stateMutability": "view",
      "type": "function"
    },
    {
      "constant": true,
      "inputs": [],
      "name": "symbol",
      "outputs": [
        {
          "name": "",
          "type": "string"
        }
      ],
      "payable": false,
      "stateMutability": "view",
      "type": "function"
    },
    {
      "constant": false,
      "inputs": [
        {
          "name": "_to",
          "type": "address"
        },
        {
          "name": "_approved",
          "type": "bool"
        }
      ],
      "name": "setApprovalForAll",
      "outputs": [],
      "payable": false,
      "stateMutability": "nonpayable",
      "type": "function"
    },
    {
      "constant": true,
      "inputs": [],
      "name": "II",
      "outputs": [
        {
          "name": "",
          "type": "bytes32"
        }
      ],
      "payable": false,
      "stateMutability": "view",
      "type": "function"
    },
    {
      "constant": false,
      "inputs": [
        {
          "name": "_from",
          "type": "address"
        },
        {
          "name": "_to",
          "type": "address"
        },
        {
          "name": "_tokenId",
          "type": "uint256"
        },
        {
          "name": "_data",
          "type": "bytes"
        }
      ],
      "name": "safeTransferFrom",
      "outputs": [],
      "payable": false,
      "stateMutability": "nonpayable",
      "type": "function"
    },
    {
      "constant": true,
      "inputs": [
        {
          "name": "_tokenId",
          "type": "uint256"
        }
      ],
      "name": "tokenURI",
      "outputs": [
        {
          "name": "",
          "type": "string"
        }
      ],
      "payable": false,
      "stateMutability": "view",
      "type": "function"
    },
    {
      "constant": true,
      "inputs": [
        {
          "name": "_owner",
          "type": "address"
        },
        {
          "name": "_operator",
          "type": "address"
        }
      ],
      "name": "isApprovedForAll",
      "outputs": [
        {
          "name": "",
          "type": "bool"
        }
      ],
      "payable": false,
      "stateMutability": "view",
      "type": "function"
    },
    {
      "inputs": [],
      "payable": false,
      "stateMutability": "nonpayable",
      "type": "constructor"
    },
    {
      "anonymous": false,
      "inputs": [
        {
          "indexed": true,
          "name": "_from",
          "type": "address"
        },
        {
          "indexed": true,
          "name": "_to",
          "type": "address"
        },
        {
          "indexed": false,
          "name": "_tokenId",
          "type": "uint256"
        }
      ],
      "name": "Transfer",
      "type": "event"
    },
    {
      "anonymous": false,
      "inputs": [
        {
          "indexed": true,
          "name": "_owner",
          "type": "address"
        },
        {
          "indexed": true,
          "name": "_approved",
          "type": "address"
        },
        {
          "indexed": false,
          "name": "_tokenId",
          "type": "uint256"
        }
      ],
      "name": "Approval",
      "type": "event"
    },
    {
      "anonymous": false,
      "inputs": [
        {
          "indexed": true,
          "name": "_owner",
          "type": "address"
        },
        {
          "indexed": true,
          "name": "_operator",
          "type": "address"
        },
        {
          "indexed": false,
          "name": "_approved",
          "type": "bool"
        }
      ],
      "name": "ApprovalForAll",
      "type": "event"
    },
    {
      "constant": false,
      "inputs": [
        {
          "name": "_to",
          "type": "address"
        },
        {
          "name": "_uri",
          "type": "string"
        },
        {
          "name": "expirationTime",
          "type": "uint256"
        }
      ],
      "name": "IssueCertificate",
      "outputs": [],
      "payable": false,
      "stateMutability": "nonpayable",
      "type": "function"
    },
    {
      "constant": false,
      "inputs": [
        {
          "name": "_to",
          "type": "address"
        },
        {
          "name": "_uri",
          "type": "string"
        }
      ],
      "name": "IssueCertificate",
      "outputs": [],
      "payable": false,
      "stateMutability": "nonpayable",
      "type": "function"
    },
    {
      "constant": true,
      "inputs": [
        {
          "name": "tokenId",
          "type": "uint256"
        }
      ],
      "name": "GetIssuerAddressByTokenId",
      "outputs": [
        {
          "name": "Issuer",
          "type": "address"
        }
      ],
      "payable": false,
      "stateMutability": "view",
      "type": "function"
    },
    {
      "constant": true,
      "inputs": [
        {
          "name": "tokenId",
          "type": "uint256"
        }
      ],
      "name": "GetExpirationTimeByTokenId",
      "outputs": [
        {
          "name": "expirationTime",
          "type": "uint256"
        }
      ],
      "payable": false,
      "stateMutability": "view",
      "type": "function"
    },
    {
      "constant": false,
      "inputs": [],
      "name": "lockAccount",
      "outputs": [],
      "payable": false,
      "stateMutability": "nonpayable",
      "type": "function"
    },
    {
      "constant": true,
      "inputs": [],
      "name": "isAccountLocked",
      "outputs": [
        {
          "name": "locked",
          "type": "bool"
        }
      ],
      "payable": false,
      "stateMutability": "view",
      "type": "function"
    },
    {
      "constant": false,
      "inputs": [
        {
          "name": "tokenId",
          "type": "uint256"
        }
      ],
      "name": "deleteCertificate",
      "outputs": [],
      "payable": false,
      "stateMutability": "nonpayable",
      "type": "function"
    },
    {
      "constant": true,
      "inputs": [
        {
          "name": "tokenId",
          "type": "uint256"
        }
      ],
      "name": "isCertificateValid",
      "outputs": [
        {
          "name": "valid",
          "type": "uint256"
        }
      ],
      "payable": false,
      "stateMutability": "view",
      "type": "function"
    }
  ],
  "bytecode": "0x60c0604052600560808190527f50656f6e7900000000000000000000000000000000000000000000000000000060a09081526200004091600b919062000186565b506040805180820190915260038082527f504e59000000000000000000000000000000000000000000000000000000000060209092019182526200008791600c9162000186565b507f5656000000000000000000000000000000000000000000000000000000000000600d557f4949000000000000000000000000000000000000000000000000000000000000600e556001600f8190556000601055601155348015620000ec57600080fd5b50604080518082018252600581527f50656f6e7900000000000000000000000000000000000000000000000000000060208083019182528351808501909452600384527f504e590000000000000000000000000000000000000000000000000000000000908401528151919291620001679160049162000186565b5080516200017d90600590602084019062000186565b5050506200022b565b828054600181600116156101000203166002900490600052602060002090601f016020900481019282601f10620001c957805160ff1916838001178555620001f9565b82800160010185558215620001f9579182015b82811115620001f9578251825591602001919060010190620001dc565b50620002079291506200020b565b5090565b6200022891905b8082111562000207576000815560010162000212565b90565b611590806200023b6000396000f3006080604052600436106101535763ffffffff7c010000000000000000000000000000000000000000000000000000000060003504166306e1976c811461015857806306fdde031461016f578063081812fc146101f9578063095ea7b31461022d57806318160ddd1461025157806323b872dd146102785780632b1f80ed146102a25780632f745c59146102ba5780633f02186e146102de57806342842e0e146102f65780634f558e79146103205780634f6ccce71461034c5780636235bce9146103645780636352211e1461037957806364113c4d1461039157806370a08231146103fa578063883eeb6e1461041b57806395d89b4114610433578063a22cb46514610448578063a5ce413a1461046e578063a8d65f2214610486578063aa1ebbad146104ed578063b88d4fde14610502578063c87b56dd14610571578063e577bc3714610589578063e985e9c51461059e575b600080fd5b34801561016457600080fd5b5061016d6105c5565b005b34801561017b57600080fd5b50610184610610565b6040805160208082528351818301528351919283929083019185019080838360005b838110156101be5781810151838201526020016101a6565b50505050905090810190601f1680156101eb5780820380516001836020036101000a031916815260200191505b509250505060405180910390f35b34801561020557600080fd5b506102116004356106a7565b60408051600160a060020a039092168252519081900360200190f35b34801561023957600080fd5b5061016d600160a060020a03600435166024356106c2565b34801561025d57600080fd5b506102666107bd565b60408051918252519081900360200190f35b34801561028457600080fd5b5061016d600160a060020a03600435811690602435166044356107c3565b3480156102ae57600080fd5b50610211600435610872565b3480156102c657600080fd5b50610266600160a060020a036004351660243561088d565b3480156102ea57600080fd5b506102666004356108da565b34801561030257600080fd5b5061016d600160a060020a03600435811690602435166044356108ec565b34801561032c57600080fd5b50610338600435610924565b604080519115158252519081900360200190f35b34801561035857600080fd5b50610266600435610947565b34801561037057600080fd5b5061026661097c565b34801561038557600080fd5b50610211600435610982565b34801561039d57600080fd5b5060408051602060046024803582810135601f810185900485028601850190965285855261016d958335600160a060020a031695369560449491939091019190819084018382808284375094975050933594506109ac9350505050565b34801561040657600080fd5b50610266600160a060020a0360043516610a63565b34801561042757600080fd5b5061016d600435610a96565b34801561043f57600080fd5b50610184610ac9565b34801561045457600080fd5b5061016d600160a060020a03600435166024351515610b2a565b34801561047a57600080fd5b50610266600435610bb9565b34801561049257600080fd5b5060408051602060046024803582810135601f810185900485028601850190965285855261016d958335600160a060020a0316953695604494919390910191908190840183828082843750949750610bef9650505050505050565b3480156104f957600080fd5b50610266610d18565b34801561050e57600080fd5b50604080516020601f60643560048181013592830184900484028501840190955281845261016d94600160a060020a038135811695602480359092169560443595369560849401918190840183828082843750949750610d1e9650505050505050565b34801561057d57600080fd5b50610184600435610d5d565b34801561059557600080fd5b50610338610e12565b3480156105aa57600080fd5b50610338600160a060020a0360043581169060243516610e31565b600160a060020a03331660009081526016602052604090205460ff16156105eb57600080fd5b600160a060020a0333166000908152601660205260409020805460ff19166001179055565b60048054604080516020601f600260001961010060018816150201909516949094049384018190048102820181019092528281526060939092909183018282801561069c5780601f106106715761010080835404028352916020019161069c565b820191906000526020600020905b81548152906001019060200180831161067f57829003601f168201915b505050505090505b90565b600090815260016020526040902054600160a060020a031690565b60006106cd82610982565b9050600160a060020a0383811690821614156106e857600080fd5b80600160a060020a031633600160a060020a0316148061070d575061070d8133610e31565b151561071857600080fd5b6000610723836106a7565b600160a060020a03161415806107415750600160a060020a03831615155b156107b857600082815260016020908152604091829020805473ffffffffffffffffffffffffffffffffffffffff1916600160a060020a03878116918217909255835186815293519093918516927f8c5be1e5ebec7d5bd14f71427d1e84f3dd0314c0f7b2291e5b200ac8c7c3b925928290030190a35b505050565b60085490565b806107ce3382610e5f565b15156107d957600080fd5b600160a060020a03841615156107ee57600080fd5b600160a060020a038316151561080357600080fd5b61080d8483610ebe565b6108178483610f6c565b61082183836110a5565b82600160a060020a031684600160a060020a03167fddf252ad1be2c89b69c2b068fc378daa952ba7f163c4a11628f55a4df523b3ef846040518082815260200191505060405180910390a350505050565b600090815260146020526040902054600160a060020a031690565b600061089883610a63565b82106108a357600080fd5b600160a060020a03831660009081526006602052604090208054839081106108c757fe5b9060005260206000200154905092915050565b60009081526015602052604090205490565b806108f73382610e5f565b151561090257600080fd5b61091e8484846020604051908101604052806000815250610d1e565b50505050565b600081815260208190526040902054600160a060020a0316801515905b50919050565b60006109516107bd565b821061095c57600080fd5b600880548390811061096a57fe5b90600052602060002001549050919050565b600d5481565b600081815260208190526040812054600160a060020a03168015156109a657600080fd5b92915050565b600160a060020a033316600090815260166020526040812054819060ff16156109d457600080fd5b601180546001810190915591506109eb85836110ee565b6109f5828561113d565b50600160a060020a033316600081815260136020908152604080832080546001810182559084528284208101869055948352601282528083209490945560148152838220805473ffffffffffffffffffffffffffffffffffffffff1916909317909255601590915220555050565b6000600160a060020a0382161515610a7a57600080fd5b50600160a060020a031660009081526002602052604090205490565b600160a060020a03331660009081526016602052604090205460ff1615610abc57600080fd5b610ac63382610f6c565b50565b60058054604080516020601f600260001961010060018816150201909516949094049384018190048102820181019092528281526060939092909183018282801561069c5780601f106106715761010080835404028352916020019161069c565b33600160a060020a031682600160a060020a031614151515610b4b57600080fd5b600160a060020a03338116600081815260036020908152604080832094871680845294825291829020805486151560ff199091168117909155825190815291517f17307eab39ab6107e8899845ad3d59bd9653f200f220920489ca2b5937696c319281900390910190a35050565b6000818152601560205260408120544281108015610bd657508015155b15610be557600f549150610941565b6010549150610941565b600160a060020a03331660009081526016602052604090205460ff1615610c1557600080fd5b30600160a060020a03166364113c4d838360006040518463ffffffff167c01000000000000000000000000000000000000000000000000000000000281526004018084600160a060020a0316600160a060020a0316815260200180602001838152602001828103825284818151815260200191508051906020019080838360005b83811015610cae578181015183820152602001610c96565b50505050905090810190601f168015610cdb5780820380516001836020036101000a031916815260200191505b50945050505050600060405180830381600087803b158015610cfc57600080fd5b505af1158015610d10573d6000803e3d6000fd5b505050505050565b600e5481565b81610d293382610e5f565b1515610d3457600080fd5b610d3f8585856107c3565b610d4b85858585611170565b1515610d5657600080fd5b5050505050565b6060610d6882610924565b1515610d7357600080fd5b6000828152600a602090815260409182902080548351601f600260001961010060018616150201909316929092049182018490048402810184019094528084529091830182828015610e065780601f10610ddb57610100808354040283529160200191610e06565b820191906000526020600020905b815481529060010190602001808311610de957829003601f168201915b50505050509050919050565b600160a060020a03331660009081526016602052604090205460ff1690565b600160a060020a03918216600090815260036020908152604080832093909416825291909152205460ff1690565b600080610e6b83610982565b905080600160a060020a031684600160a060020a03161480610ea6575083600160a060020a0316610e9b846106a7565b600160a060020a0316145b80610eb65750610eb68185610e31565b949350505050565b81600160a060020a0316610ed182610982565b600160a060020a031614610ee457600080fd5b600081815260016020526040902054600160a060020a031615610f68576000818152600160209081526040808320805473ffffffffffffffffffffffffffffffffffffffff1916905580518481529051600160a060020a038616927f8c5be1e5ebec7d5bd14f71427d1e84f3dd0314c0f7b2291e5b200ac8c7c3b925928290030190a35b5050565b6000806000610f7b85856112f9565b600084815260076020908152604080832054600160a060020a0389168452600690925290912054909350610fb690600163ffffffff61138e16565b600160a060020a038616600090815260066020526040902080549193509083908110610fde57fe5b90600052602060002001549050806006600087600160a060020a0316600160a060020a031681526020019081526020016000208481548110151561101e57fe5b6000918252602080832090910192909255600160a060020a038716815260069091526040812080548490811061105057fe5b6000918252602080832090910192909255600160a060020a03871681526006909152604090208054906110879060001983016114a8565b50600093845260076020526040808520859055908452909220555050565b60006110b183836113a0565b50600160a060020a039091166000908152600660209081526040808320805460018101825590845282842081018590559383526007909152902055565b6110f8828261142f565b600880546000838152600960205260408120829055600182018355919091527ff3f7a9fe364faab93b216da50a3214154f22a0a2b415b23a84c8169e8b636ee3015550565b61114682610924565b151561115157600080fd5b6000828152600a6020908152604090912082516107b8928401906114cc565b60008061118585600160a060020a0316611493565b151561119457600191506112f0565b84600160a060020a031663f0b9e5ba8786866040518463ffffffff167c01000000000000000000000000000000000000000000000000000000000281526004018084600160a060020a0316600160a060020a0316815260200183815260200180602001828103825283818151815260200191508051906020019080838360005b8381101561122c578181015183820152602001611214565b50505050905090810190601f1680156112595780820380516001836020036101000a031916815260200191505b50945050505050602060405180830381600087803b15801561127a57600080fd5b505af115801561128e573d6000803e3d6000fd5b505050506040513d60208110156112a457600080fd5b50517fffffffff0000000000000000000000000000000000000000000000000000000081167ff0b9e5ba0000000000000000000000000000000000000000000000000000000014925090505b50949350505050565b81600160a060020a031661130c82610982565b600160a060020a03161461131f57600080fd5b600160a060020a03821660009081526002602052604090205461134990600163ffffffff61138e16565b600160a060020a039092166000908152600260209081526040808320949094559181529081905220805473ffffffffffffffffffffffffffffffffffffffff19169055565b60008282111561139a57fe5b50900390565b600081815260208190526040902054600160a060020a0316156113c257600080fd5b600081815260208181526040808320805473ffffffffffffffffffffffffffffffffffffffff1916600160a060020a0387169081179091558352600290915290205461140f90600161149b565b600160a060020a0390921660009081526002602052604090209190915550565b600160a060020a038216151561144457600080fd5b61144e82826110a5565b604080518281529051600160a060020a038416916000917fddf252ad1be2c89b69c2b068fc378daa952ba7f163c4a11628f55a4df523b3ef9181900360200190a35050565b6000903b1190565b818101828110156109a657fe5b8154818355818111156107b8576000838152602090206107b891810190830161154a565b828054600181600116156101000203166002900490600052602060002090601f016020900481019282601f1061150d57805160ff191683800117855561153a565b8280016001018555821561153a579182015b8281111561153a57825182559160200191906001019061151f565b5061154692915061154a565b5090565b6106a491905b8082111561154657600081556001016115505600a165627a7a72305820c6d5117687dcc321a4feb29398a255ea436e1ed850130112bc719b7fbc6949f10029",
  "source": "pragma solidity ^0.4.18;\r\nimport \"zeppelin-solidity/contracts/token/ERC721/ERC721Token.sol\";\r\n// References: https://github.com/OpenZeppelin/openzeppelin-solidity/blob/v1.8.0/contracts/token/ERC721/ERC721Token.sol\r\n\r\ncontract PeonyCertificate is ERC721Token (\"Peony\", \"PNY\") {\r\n    // These two are included in the open lib\r\n    string internal name_ = \"Peony\";\r\n    string internal symbol_ = \"PNY\";\r\n    // string internal VV = \"VVV\";\r\n    // string internal IV = \"III\";\r\n    bytes32 public VV = \"VV\";\r\n    bytes32 public II = \"II\";\r\n    uint256 yes = 1;\r\n    uint256 no = 0;\r\n    uint256 tokenId = 1; // default tokenId for helping people to create unique id\r\n\r\n    // our additional attirbutes for Issuer\r\n    // Mapping from token ID to index of the issuer's issued tokens list\r\n    mapping(uint256 => uint256) internal issuedTokensIndex;\r\n\r\n    // Mapping from issuer to list of issued token IDs\r\n    mapping (address => uint256[]) internal issuedTokens;\r\n\r\n    // Mapping from token ID to issuer\r\n    mapping (uint256 => address) internal tokenIssuer;\r\n\r\n    // Mapping from token ID to Expiration time\r\n    mapping (uint256 => uint256) internal certificateExpirationTime;\r\n\r\n    // Mapping from token ID to Valid Cert\r\n    // mapping (uint256 => uint256) internal certificateIsValid;\r\n\r\n    // Mapping from address to lockdown  (for account getting hacked,  so owner will have ability to 'lock down' the account)\r\n    mapping (address => bool) internal lockedDownAddresses;\r\n\r\n    // constructor\r\n    function PeonyCertificate() public { \r\n\r\n    }\r\n    \r\n    modifier onlyUnlocked() {\r\n        require(!lockedDownAddresses[msg.sender]);\r\n        _;\r\n    }\r\n\r\n    // Function to issue certificate to a receiver\r\n    // _uri  : The JSON string data that we will put in certificate\r\n    function IssueCertificate(address _to, string _uri) onlyUnlocked public {\r\n        this.IssueCertificate(_to, _uri, 0);\r\n    }\r\n\r\n    // OverLoaded function for regression\r\n    function IssueCertificate(address _to, string _uri, uint256 expirationTime) onlyUnlocked public {\r\n        uint256 newTokenId = tokenId++;\r\n        super._mint(_to, newTokenId);\r\n        super._setTokenURI(newTokenId, _uri);\r\n        // Update issuer data and Addition Peony Features\r\n        uint256 issuerLength = issuedTokens[msg.sender].length;\r\n        issuedTokens[msg.sender].push(newTokenId);\r\n        issuedTokensIndex[newTokenId] = issuerLength;\r\n        tokenIssuer[newTokenId] = msg.sender;\r\n        // Add expireationTime stamp\r\n        certificateExpirationTime[newTokenId] = expirationTime;\r\n    }\r\n\r\n    // Get Issuer address from provided tokentId\r\n    // 0: meaning the tokenId doesn't have mapped Issuer Address (more likely there is no such token)\r\n    function GetIssuerAddressByTokenId(uint256 tokenId) public view returns(address Issuer) {\r\n        return tokenIssuer[tokenId];\r\n    }\r\n\r\n    // Get Issuer address from provided tokentId\r\n    // 0: meaning the tokenId doesn't have mapped Issuer Address (more likely there is no such token)\r\n    function GetExpirationTimeByTokenId(uint256 tokenId) public view returns(uint256 expirationTime) {\r\n        return certificateExpirationTime[tokenId];\r\n    }\r\n\r\n    // Emergency kill button for issuer\r\n    // When user's private key is stolen, so user can lock the account so it won't be able to issue any more certificates\r\n    function lockAccount() onlyUnlocked public {\r\n        lockedDownAddresses[msg.sender] = true;\r\n    }\r\n\r\n    //Helper view function to check if the account is locked\r\n    function isAccountLocked() public view returns(bool locked){\r\n        return lockedDownAddresses[msg.sender];\r\n    }\r\n\r\n    //Function to remove token from owner  for allowing users to remove unwanted certificates\r\n    function deleteCertificate(uint256 tokenId) onlyUnlocked public{\r\n        removeTokenFrom(msg.sender, tokenId);\r\n    }\r\n\r\n\r\n\r\n\r\n\r\n    // function isCertificateValid(uint256 tokenId) public view returns(bool valid) {\r\n    // function isCertificateValid(uint256 tokenId) public view returns(byte32 valid) {\r\n    // function isCertificateValid(uint256 tokenId) public view returns(string valid) {\r\n    function isCertificateValid(uint256 tokenId) public view returns(uint256 valid) {\r\n        // expirationTime = GetExpirationTimeByTokenId(tokenId);\r\n        uint256 expirationTime = certificateExpirationTime[tokenId];        \r\n        if (now > expirationTime && expirationTime != 0) {\r\n            // return \"valid!\";\r\n            // return VV;\r\n            return yes;\r\n        } else {\r\n            // return \"invalid!\";\r\n            // return II;\r\n            return no;\r\n        }        \r\n    }\r\n\r\n     \r\n}\r\n",
  "sourcePath": "C:\\workspaces\\Peony_Assignment\\contracts\\PeonyCertificate.sol",
  "compiler": {
    "name": "solc",
    "version": "0.4.23+commit.124ca40d.Emscripten.clang"
  },
  "schemaVersion": "2.0.0",
  "updatedAt": "2018-05-23T09:42:53.546Z"
}